{"abi":[{"type":"constructor","inputs":[{"name":"_WETH","type":"address","internalType":"address"},{"name":"_WBTC","type":"address","internalType":"address"},{"name":"_UniswapRouterV3","type":"address","internalType":"address"},{"name":"_AaveLendingPoolv3","type":"address","internalType":"address"},{"name":"_strategyManager","type":"address","internalType":"address"},{"name":"_aBTC","type":"address","internalType":"address"}],"stateMutability":"nonpayable"},{"type":"receive","stateMutability":"payable"},{"type":"function","name":"AaveLendingPoolv3","inputs":[],"outputs":[{"name":"","type":"address","internalType":"address"}],"stateMutability":"view"},{"type":"function","name":"UniswapV3Router","inputs":[],"outputs":[{"name":"","type":"address","internalType":"address"}],"stateMutability":"view"},{"type":"function","name":"WBTC","inputs":[],"outputs":[{"name":"","type":"address","internalType":"address"}],"stateMutability":"view"},{"type":"function","name":"WETH","inputs":[],"outputs":[{"name":"","type":"address","internalType":"address"}],"stateMutability":"view"},{"type":"function","name":"aBTC","inputs":[],"outputs":[{"name":"","type":"address","internalType":"address"}],"stateMutability":"view"},{"type":"function","name":"divest","inputs":[{"name":"user","type":"address","internalType":"address"},{"name":"amount","type":"uint256","internalType":"uint256"}],"outputs":[],"stateMutability":"payable"},{"type":"function","name":"fee","inputs":[],"outputs":[{"name":"","type":"uint256","internalType":"uint256"}],"stateMutability":"view"},{"type":"function","name":"getRoyalty","inputs":[],"outputs":[{"name":"","type":"uint256","internalType":"uint256"}],"stateMutability":"pure"},{"type":"function","name":"invest","inputs":[{"name":"user","type":"address","internalType":"address"},{"name":"amt","type":"uint256","internalType":"uint256"}],"outputs":[],"stateMutability":"payable"},{"type":"function","name":"strategist","inputs":[],"outputs":[{"name":"","type":"address","internalType":"address"}],"stateMutability":"view"},{"type":"function","name":"strategyManager","inputs":[],"outputs":[{"name":"","type":"address","internalType":"address"}],"stateMutability":"view"},{"type":"event","name":"Divest","inputs":[{"name":"user","type":"address","indexed":false,"internalType":"address"},{"name":"invested_amount","type":"uint256","indexed":false,"internalType":"uint256"},{"name":"received_amount","type":"uint256","indexed":false,"internalType":"uint256"}],"anonymous":false},{"type":"event","name":"FeeDeduction","inputs":[{"name":"user","type":"address","indexed":false,"internalType":"address"},{"name":"strategist","type":"address","indexed":false,"internalType":"address"},{"name":"fee_amount","type":"uint256","indexed":false,"internalType":"uint256"}],"anonymous":false},{"type":"event","name":"Invest","inputs":[{"name":"user","type":"address","indexed":true,"internalType":"address"},{"name":"amount","type":"uint256","indexed":false,"internalType":"uint256"}],"anonymous":false}],"bytecode":{"object":"0x61014060405234801561001157600080fd5b50604051610e17380380610e178339810160408190526100309161007b565b6001600160a01b0395861660a05293851660c05291841660e052831661010052821660805216610120526100ef565b80516001600160a01b038116811461007657600080fd5b919050565b60008060008060008060c0878903121561009457600080fd5b61009d8761005f565b95506100ab6020880161005f565b94506100b96040880161005f565b93506100c76060880161005f565b92506100d56080880161005f565b91506100e360a0880161005f565b90509295509295509295565b60805160a05160c05160e0516101005161012051610c5c6101bb6000396000818160be015261069a01526000818161021e015281816104da015281816105d101526107940152600081816101b6015281816104490152818161081a0152610957015260008181610182015281816103e80152818161050c015281816105930152818161075c0152818161084c01526108d10152600081816101ea015281816102c0015281816103c301526108f601526000818161012f01528181610289015261071b0152610c5c6000f3fe6080604052600436106100a05760003560e01c80638c0a4ef0116100645780638c0a4ef0146101a4578063ad5c4648146101d8578063b55530e61461020c578063b9b8c24614610240578063bb50431714610255578063ddca3f431461026857600080fd5b80631db26be5146100ac5780631fe4a686146100fd57806339b70e381461011d5780634d47732a146101515780634dede3de1461017057600080fd5b366100a757005b600080fd5b3480156100b857600080fd5b506100e07f000000000000000000000000000000000000000000000000000000000000000081565b6040516001600160a01b0390911681526020015b60405180910390f35b34801561010957600080fd5b506000546100e0906001600160a01b031681565b34801561012957600080fd5b506100e07f000000000000000000000000000000000000000000000000000000000000000081565b34801561015d57600080fd5b506103e85b6040519081526020016100f4565b34801561017c57600080fd5b506100e07f000000000000000000000000000000000000000000000000000000000000000081565b3480156101b057600080fd5b506100e07f000000000000000000000000000000000000000000000000000000000000000081565b3480156101e457600080fd5b506100e07f000000000000000000000000000000000000000000000000000000000000000081565b34801561021857600080fd5b506100e07f000000000000000000000000000000000000000000000000000000000000000081565b61025361024e366004610adb565b61027e565b005b610253610263366004610adb565b610678565b34801561027457600080fd5b506101626103e881565b336001600160a01b037f000000000000000000000000000000000000000000000000000000000000000016146102b357600080fd5b80156102be57600080fd5b7f00000000000000000000000000000000000000000000000000000000000000006001600160a01b031663d0e30db0346040518263ffffffff1660e01b81526004016000604051808303818588803b15801561031957600080fd5b505af115801561032d573d6000803e3d6000fd5b505050505060006127106103e8346103459190610b29565b61034f9190610b46565b9050600061035d8234610b68565b600054604080516001600160a01b038089168252909216602083015281018490529091507f66c3a233e2d1f4724bc6f0753c0eea5baef94feefc9b52698e64ed7bb48f962a9060600160405180910390a160408051610100810182526001600160a01b037f0000000000000000000000000000000000000000000000000000000000000000811682527f000000000000000000000000000000000000000000000000000000000000000081166020830152610bb88284015230606083015242608083015260a08201849052600060c0830181905260e08301819052925163414bf38960e01b81529192917f00000000000000000000000000000000000000000000000000000000000000009091169063414bf38990610480908590600401610b7b565b6020604051808303816000875af115801561049f573d6000803e3d6000fd5b505050506040513d601f19601f820116820180604052508101906104c39190610be4565b60405163095ea7b360e01b81526001600160a01b037f000000000000000000000000000000000000000000000000000000000000000081166004830152602482018390529192507f00000000000000000000000000000000000000000000000000000000000000009091169063095ea7b3906044016020604051808303816000875af1158015610557573d6000803e3d6000fd5b505050506040513d601f19601f8201168201806040525081019061057b9190610bfd565b5060405163617ba03760e01b81526001600160a01b037f000000000000000000000000000000000000000000000000000000000000000081166004830152602482018390528781166044830152600060648301527f0000000000000000000000000000000000000000000000000000000000000000169063617ba03790608401600060405180830381600087803b15801561061557600080fd5b505af1158015610629573d6000803e3d6000fd5b50505050856001600160a01b03167fd90d253a9de34d2fdd5a75ae49ea17fcb43af32fc8ea08cc6d2341991dd3872e8260405161066891815260200190565b60405180910390a2505050505050565b6040516323b872dd60e01b8152336004820152306024820152604481018290527f00000000000000000000000000000000000000000000000000000000000000006001600160a01b0316906323b872dd906064016020604051808303816000875af11580156106eb573d6000803e3d6000fd5b505050506040513d601f19601f8201168201806040525081019061070f9190610bfd565b50336001600160a01b037f0000000000000000000000000000000000000000000000000000000000000000161461074557600080fd5b604051631a4ca37b60e21b81526001600160a01b037f000000000000000000000000000000000000000000000000000000000000000081166004830152602482018390523060448301526000917f0000000000000000000000000000000000000000000000000000000000000000909116906369328dec906064016020604051808303816000875af11580156107df573d6000803e3d6000fd5b505050506040513d601f19601f820116820180604052508101906108039190610be4565b60405163095ea7b360e01b81526001600160a01b037f000000000000000000000000000000000000000000000000000000000000000081166004830152602482018390529192507f00000000000000000000000000000000000000000000000000000000000000009091169063095ea7b3906044016020604051808303816000875af1158015610897573d6000803e3d6000fd5b505050506040513d601f19601f820116820180604052508101906108bb9190610bfd565b5060408051610100810182526001600160a01b037f0000000000000000000000000000000000000000000000000000000000000000811682527f000000000000000000000000000000000000000000000000000000000000000081166020830152610bb88284015230606083015242608083015260a08201859052600060c0830181905260e08301819052925163414bf38960e01b81529192917f00000000000000000000000000000000000000000000000000000000000000009091169063414bf3899061098e908590600401610b7b565b6020604051808303816000875af11580156109ad573d6000803e3d6000fd5b505050506040513d601f19601f820116820180604052508101906109d19190610be4565b905060006127106109e46103e884610b29565b6109ee9190610b46565b90506001600160a01b0386166108fc610a078385610b68565b6040518115909202916000818181858888f19350505050158015610a2f573d6000803e3d6000fd5b50600054604080516001600160a01b03808a168252909216602083015281018290527f66c3a233e2d1f4724bc6f0753c0eea5baef94feefc9b52698e64ed7bb48f962a9060600160405180910390a17fcafd59f7fc2c5ca06db768647429abaf7d4bbd26d7b7f3b61090fdd8f2e447268686610aab8486610b68565b604080516001600160a01b03909416845260208401929092529082015260600160405180910390a1505050505050565b60008060408385031215610aee57600080fd5b82356001600160a01b0381168114610b0557600080fd5b946020939093013593505050565b634e487b7160e01b600052601160045260246000fd5b8082028115828204841417610b4057610b40610b13565b92915050565b600082610b6357634e487b7160e01b600052601260045260246000fd5b500490565b81810381811115610b4057610b40610b13565b81516001600160a01b03908116825260208084015182169083015260408084015162ffffff16908301526060808401518216908301526080808401519083015260a0838101519083015260c0808401519083015260e09283015116918101919091526101000190565b600060208284031215610bf657600080fd5b5051919050565b600060208284031215610c0f57600080fd5b81518015158114610c1f57600080fd5b939250505056fea26469706673582212204a614247d3d6b8153e40bce9f297c7375f695eea0b89c865281cda19421f840664736f6c63430008150033","linkReferences":{}},"methodIdentifiers":{"AaveLendingPoolv3()":"b55530e6","UniswapV3Router()":"8c0a4ef0","WBTC()":"4dede3de","WETH()":"ad5c4648","aBTC()":"1db26be5","divest(address,uint256)":"bb504317","fee()":"ddca3f43","getRoyalty()":"4d47732a","invest(address,uint256)":"b9b8c246","strategist()":"1fe4a686","strategyManager()":"39b70e38"},"id":6}