{"abi":[{"type":"constructor","inputs":[{"name":"_aaveLP","type":"address","internalType":"address"},{"name":"_offchain","type":"address","internalType":"address"},{"name":"_baseToken","type":"address","internalType":"address"},{"name":"_marketToken","type":"address","internalType":"address"},{"name":"_aToken","type":"address","internalType":"address"}],"stateMutability":"nonpayable"},{"type":"function","name":"digestFromOffchainDivest","inputs":[{"name":"user","type":"address","internalType":"address"},{"name":"amountReq","type":"uint256","internalType":"uint256"},{"name":"amountRecBaseMarket","type":"uint256","internalType":"uint256"}],"outputs":[],"stateMutability":"nonpayable"},{"type":"function","name":"digestFromOffchainInvest","inputs":[{"name":"user","type":"address","internalType":"address"},{"name":"amount","type":"uint256","internalType":"uint256"}],"outputs":[],"stateMutability":"nonpayable"},{"type":"function","name":"divest","inputs":[{"name":"user","type":"address","internalType":"address"},{"name":"amount","type":"uint256","internalType":"uint256"}],"outputs":[],"stateMutability":"payable"},{"type":"function","name":"getRoyalty","inputs":[],"outputs":[{"name":"","type":"uint256","internalType":"uint256"}],"stateMutability":"pure"},{"type":"function","name":"invest","inputs":[{"name":"user","type":"address","internalType":"address"},{"name":"amount","type":"uint256","internalType":"uint256"}],"outputs":[],"stateMutability":"payable"},{"type":"function","name":"strategist","inputs":[],"outputs":[{"name":"","type":"address","internalType":"address"}],"stateMutability":"view"},{"type":"event","name":"Divest","inputs":[{"name":"user","type":"address","indexed":false,"internalType":"address"},{"name":"invested_amount","type":"uint256","indexed":false,"internalType":"uint256"},{"name":"received_amount","type":"uint256","indexed":false,"internalType":"uint256"}],"anonymous":false},{"type":"event","name":"FeeDeduction","inputs":[{"name":"user","type":"address","indexed":false,"internalType":"address"},{"name":"strategist","type":"address","indexed":false,"internalType":"address"},{"name":"fee_amount","type":"uint256","indexed":false,"internalType":"uint256"}],"anonymous":false},{"type":"event","name":"Invest","inputs":[{"name":"user","type":"address","indexed":true,"internalType":"address"},{"name":"amount","type":"uint256","indexed":false,"internalType":"uint256"}],"anonymous":false},{"type":"event","name":"OffchainDivest","inputs":[{"name":"user","type":"address","indexed":false,"internalType":"address"},{"name":"amount","type":"uint256","indexed":false,"internalType":"uint256"}],"anonymous":false}],"bytecode":{"object":"0x60a06040526103e860805234801561001657600080fd5b506040516106de3803806106de833981016040819052610035916100b3565b600180546001600160a01b03199081166001600160a01b03978816179091556002805482169587169590951790945560038054851693861693909317909255600480548416918516919091179055600580549092169216919091179055610118565b80516001600160a01b03811681146100ae57600080fd5b919050565b600080600080600060a086880312156100cb57600080fd5b6100d486610097565b94506100e260208701610097565b93506100f060408701610097565b92506100fe60608701610097565b915061010c60808701610097565b90509295509295909350565b6080516105ac610132600039600060cb01526105ac6000f3fe6080604052600436106100555760003560e01c80631fe4a6861461005a57806343c9c3b7146100975780634d47732a146100b9578063b9b8c246146100f4578063bb50431714610107578063f0ee9a6f1461011a575b600080fd5b34801561006657600080fd5b5060005461007a906001600160a01b031681565b6040516001600160a01b0390911681526020015b60405180910390f35b3480156100a357600080fd5b506100b76100b23660046104d7565b61013a565b005b3480156100c557600080fd5b506040517f0000000000000000000000000000000000000000000000000000000000000000815260200161008e565b6100b761010236600461050a565b610218565b6100b761011536600461050a565b6102dd565b34801561012657600080fd5b506100b761013536600461050a565b610425565b6002546001600160a01b0316331461015157600080fd5b60035460405163a9059cbb60e01b81526001600160a01b038581166004830152602482018490529091169063a9059cbb906044016020604051808303816000875af11580156101a4573d6000803e3d6000fd5b505050506040513d601f19601f820116820180604052508101906101c89190610534565b50604080516001600160a01b0385168152602081018490529081018290527fcafd59f7fc2c5ca06db768647429abaf7d4bbd26d7b7f3b61090fdd8f2e447269060600160405180910390a1505050565b6003546040516323b872dd60e01b81526001600160a01b03848116600483015230602483015260448201849052909116906323b872dd906064016020604051808303816000875af1158015610271573d6000803e3d6000fd5b505050506040513d601f19601f820116820180604052508101906102959190610534565b50816001600160a01b03167fd90d253a9de34d2fdd5a75ae49ea17fcb43af32fc8ea08cc6d2341991dd3872e826040516102d191815260200190565b60405180910390a25050565b6005546040516323b872dd60e01b81526001600160a01b03848116600483015230602483015260448201849052909116906323b872dd906064016020604051808303816000875af1158015610336573d6000803e3d6000fd5b505050506040513d601f19601f8201168201806040525081019061035a9190610534565b5060015460048054604051631a4ca37b60e21b81526001600160a01b039182169281019290925260248201849052306044830152909116906369328dec906064016020604051808303816000875af11580156103ba573d6000803e3d6000fd5b505050506040513d601f19601f820116820180604052508101906103de919061055d565b50604080516001600160a01b0384168152602081018390527fb6ff4cc3414e3cfb00220f9550656381a72cf3af632175bdad0ee6c994cf8470910160405180910390a15050565b6002546001600160a01b0316331461043c57600080fd5b6001546004805460405163617ba03760e01b81526001600160a01b0391821692810192909252602482018490528481166044830152600060648301529091169063617ba03790608401600060405180830381600087803b15801561049f57600080fd5b505af11580156104b3573d6000803e3d6000fd5b505050505050565b80356001600160a01b03811681146104d257600080fd5b919050565b6000806000606084860312156104ec57600080fd5b6104f5846104bb565b95602085013595506040909401359392505050565b6000806040838503121561051d57600080fd5b610526836104bb565b946020939093013593505050565b60006020828403121561054657600080fd5b8151801515811461055657600080fd5b9392505050565b60006020828403121561056f57600080fd5b505191905056fea2646970667358221220a982c93a25c6c9659a90c7187bd29466942587ef49fa7fa630ce21bcd877503264736f6c63430008150033","linkReferences":{}},"methodIdentifiers":{"digestFromOffchainDivest(address,uint256,uint256)":"43c9c3b7","digestFromOffchainInvest(address,uint256)":"f0ee9a6f","divest(address,uint256)":"bb504317","getRoyalty()":"4d47732a","invest(address,uint256)":"b9b8c246","strategist()":"1fe4a686"},"id":3}