{"contracts/src/Strategies/Strategy2/Strategy2.sol":{"Strategy2":{"abi":[{"inputs":[{"internalType":"address","name":"_yearnStrategy","type":"address"},{"internalType":"address","name":"_offchain","type":"address"}],"stateMutability":"nonpayable","type":"constructor"},{"anonymous":false,"inputs":[{"indexed":false,"internalType":"address","name":"user","type":"address"},{"indexed":false,"internalType":"uint256","name":"invested_amount","type":"uint256"},{"indexed":false,"internalType":"uint256","name":"received_amount","type":"uint256"}],"name":"Divest","type":"event"},{"anonymous":false,"inputs":[{"indexed":false,"internalType":"address","name":"user","type":"address"},{"indexed":false,"internalType":"address","name":"strategist","type":"address"},{"indexed":false,"internalType":"uint256","name":"fee_amount","type":"uint256"}],"name":"FeeDeduction","type":"event"},{"anonymous":false,"inputs":[{"indexed":true,"internalType":"address","name":"user","type":"address"},{"indexed":false,"internalType":"uint256","name":"amount","type":"uint256"}],"name":"Invest","type":"event"},{"anonymous":false,"inputs":[{"indexed":false,"internalType":"address","name":"user","type":"address"},{"indexed":false,"internalType":"uint256","name":"amount","type":"uint256"}],"name":"OffchainDivest","type":"event"},{"inputs":[{"internalType":"address","name":"user","type":"address"},{"internalType":"uint256","name":"amountReq","type":"uint256"},{"internalType":"uint256","name":"amountRecBaseMarket","type":"uint256"}],"name":"digestFromOffchainDivest","outputs":[],"stateMutability":"nonpayable","type":"function"},{"inputs":[{"internalType":"address","name":"user","type":"address"},{"internalType":"uint256","name":"amount","type":"uint256"}],"name":"digestFromOffchainInvest","outputs":[],"stateMutability":"nonpayable","type":"function"},{"inputs":[{"internalType":"address","name":"user","type":"address"},{"internalType":"uint256","name":"amount","type":"uint256"}],"name":"divest","outputs":[],"stateMutability":"payable","type":"function"},{"inputs":[],"name":"getRoyalty","outputs":[{"internalType":"uint256","name":"","type":"uint256"}],"stateMutability":"pure","type":"function"},{"inputs":[{"internalType":"address","name":"user","type":"address"},{"internalType":"uint256","name":"amount","type":"uint256"}],"name":"invest","outputs":[],"stateMutability":"payable","type":"function"},{"inputs":[],"name":"strategist","outputs":[{"internalType":"address","name":"","type":"address"}],"stateMutability":"view","type":"function"}],"evm":{"bytecode":{"linkReferences":{},"object":"60a06040526103e860809081525034801561001957600080fd5b506040516109b83803806109b8833981810160405281019061003b9190610127565b81600160006101000a81548173ffffffffffffffffffffffffffffffffffffffff021916908373ffffffffffffffffffffffffffffffffffffffff16021790555080600260006101000a81548173ffffffffffffffffffffffffffffffffffffffff021916908373ffffffffffffffffffffffffffffffffffffffff1602179055505050610167565b600080fd5b600073ffffffffffffffffffffffffffffffffffffffff82169050919050565b60006100f4826100c9565b9050919050565b610104816100e9565b811461010f57600080fd5b50565b600081519050610121816100fb565b92915050565b6000806040838503121561013e5761013d6100c4565b5b600061014c85828601610112565b925050602061015d85828601610112565b9150509250929050565b608051610836610182600039600061029d01526108366000f3fe6080604052600436106100555760003560e01c80631fe4a6861461005a57806343c9c3b7146100855780634d47732a146100ae578063b9b8c246146100d9578063bb504317146100f5578063f0ee9a6f14610111575b600080fd5b34801561006657600080fd5b5061006f61013a565b60405161007c919061059c565b60405180910390f35b34801561009157600080fd5b506100ac60048036038101906100a7919061061e565b61015e565b005b3480156100ba57600080fd5b506100c3610299565b6040516100d09190610680565b60405180910390f35b6100f360048036038101906100ee919061069b565b6102c1565b005b61010f600480360381019061010a919061069b565b610313565b005b34801561011d57600080fd5b506101386004803603810190610133919061069b565b61046e565b005b60008054906101000a900473ffffffffffffffffffffffffffffffffffffffff1681565b600260009054906101000a900473ffffffffffffffffffffffffffffffffffffffff1673ffffffffffffffffffffffffffffffffffffffff163373ffffffffffffffffffffffffffffffffffffffff16146101b857600080fd5b600360009054906101000a900473ffffffffffffffffffffffffffffffffffffffff1673ffffffffffffffffffffffffffffffffffffffff1663a9059cbb84836040518363ffffffff1660e01b81526004016102159291906106db565b6020604051808303816000875af1158015610234573d6000803e3d6000fd5b505050506040513d601f19601f82011682018060405250810190610258919061073c565b507fcafd59f7fc2c5ca06db768647429abaf7d4bbd26d7b7f3b61090fdd8f2e4472683838360405161028c93929190610769565b60405180910390a1505050565b60007f0000000000000000000000000000000000000000000000000000000000000000905090565b8173ffffffffffffffffffffffffffffffffffffffff167fd90d253a9de34d2fdd5a75ae49ea17fcb43af32fc8ea08cc6d2341991dd3872e826040516103079190610680565b60405180910390a25050565b600160009054906101000a900473ffffffffffffffffffffffffffffffffffffffff1673ffffffffffffffffffffffffffffffffffffffff166323b872dd8330846040518463ffffffff1660e01b8152600401610372939291906107a0565b600060405180830381600087803b15801561038c57600080fd5b505af11580156103a0573d6000803e3d6000fd5b50505050600160009054906101000a900473ffffffffffffffffffffffffffffffffffffffff1673ffffffffffffffffffffffffffffffffffffffff16632e1a7d4d826040518263ffffffff1660e01b81526004016103ff9190610680565b600060405180830381600087803b15801561041957600080fd5b505af115801561042d573d6000803e3d6000fd5b505050507fb6ff4cc3414e3cfb00220f9550656381a72cf3af632175bdad0ee6c994cf847082826040516104629291906106db565b60405180910390a15050565b600260009054906101000a900473ffffffffffffffffffffffffffffffffffffffff1673ffffffffffffffffffffffffffffffffffffffff163373ffffffffffffffffffffffffffffffffffffffff16146104c857600080fd5b600160009054906101000a900473ffffffffffffffffffffffffffffffffffffffff1673ffffffffffffffffffffffffffffffffffffffff16636e553f6582846040518363ffffffff1660e01b81526004016105259291906107d7565b600060405180830381600087803b15801561053f57600080fd5b505af1158015610553573d6000803e3d6000fd5b505050505050565b600073ffffffffffffffffffffffffffffffffffffffff82169050919050565b60006105868261055b565b9050919050565b6105968161057b565b82525050565b60006020820190506105b1600083018461058d565b92915050565b600080fd5b6105c58161057b565b81146105d057600080fd5b50565b6000813590506105e2816105bc565b92915050565b6000819050919050565b6105fb816105e8565b811461060657600080fd5b50565b600081359050610618816105f2565b92915050565b600080600060608486031215610637576106366105b7565b5b6000610645868287016105d3565b935050602061065686828701610609565b925050604061066786828701610609565b9150509250925092565b61067a816105e8565b82525050565b60006020820190506106956000830184610671565b92915050565b600080604083850312156106b2576106b16105b7565b5b60006106c0858286016105d3565b92505060206106d185828601610609565b9150509250929050565b60006040820190506106f0600083018561058d565b6106fd6020830184610671565b9392505050565b60008115159050919050565b61071981610704565b811461072457600080fd5b50565b60008151905061073681610710565b92915050565b600060208284031215610752576107516105b7565b5b600061076084828501610727565b91505092915050565b600060608201905061077e600083018661058d565b61078b6020830185610671565b6107986040830184610671565b949350505050565b60006060820190506107b5600083018661058d565b6107c2602083018561058d565b6107cf6040830184610671565b949350505050565b60006040820190506107ec6000830185610671565b6107f9602083018461058d565b939250505056fea2646970667358221220fc8a6d51595b9d62efa3038d58d6cda6fb40013e5b0a9c13ef28a39f3eb2eed964736f6c63430008120033","opcodes":"PUSH1 0xA0 PUSH1 0x40 MSTORE PUSH2 0x3E8 PUSH1 0x80 SWAP1 DUP2 MSTORE POP CALLVALUE DUP1 ISZERO PUSH2 0x19 JUMPI PUSH1 0x0 DUP1 REVERT JUMPDEST POP PUSH1 0x40 MLOAD PUSH2 0x9B8 CODESIZE SUB DUP1 PUSH2 0x9B8 DUP4 CODECOPY DUP2 DUP2 ADD PUSH1 0x40 MSTORE DUP2 ADD SWAP1 PUSH2 0x3B SWAP2 SWAP1 PUSH2 0x127 JUMP JUMPDEST DUP2 PUSH1 0x1 PUSH1 0x0 PUSH2 0x100 EXP DUP2 SLOAD DUP2 PUSH20 0xFFFFFFFFFFFFFFFFFFFFFFFFFFFFFFFFFFFFFFFF MUL NOT AND SWAP1 DUP4 PUSH20 0xFFFFFFFFFFFFFFFFFFFFFFFFFFFFFFFFFFFFFFFF AND MUL OR SWAP1 SSTORE POP DUP1 PUSH1 0x2 PUSH1 0x0 PUSH2 0x100 EXP DUP2 SLOAD DUP2 PUSH20 0xFFFFFFFFFFFFFFFFFFFFFFFFFFFFFFFFFFFFFFFF MUL NOT AND SWAP1 DUP4 PUSH20 0xFFFFFFFFFFFFFFFFFFFFFFFFFFFFFFFFFFFFFFFF AND MUL OR SWAP1 SSTORE POP POP POP PUSH2 0x167 JUMP JUMPDEST PUSH1 0x0 DUP1 REVERT JUMPDEST PUSH1 0x0 PUSH20 0xFFFFFFFFFFFFFFFFFFFFFFFFFFFFFFFFFFFFFFFF DUP3 AND SWAP1 POP SWAP2 SWAP1 POP JUMP JUMPDEST PUSH1 0x0 PUSH2 0xF4 DUP3 PUSH2 0xC9 JUMP JUMPDEST SWAP1 POP SWAP2 SWAP1 POP JUMP JUMPDEST PUSH2 0x104 DUP2 PUSH2 0xE9 JUMP JUMPDEST DUP2 EQ PUSH2 0x10F JUMPI PUSH1 0x0 DUP1 REVERT JUMPDEST POP JUMP JUMPDEST PUSH1 0x0 DUP2 MLOAD SWAP1 POP PUSH2 0x121 DUP2 PUSH2 0xFB JUMP JUMPDEST SWAP3 SWAP2 POP POP JUMP JUMPDEST PUSH1 0x0 DUP1 PUSH1 0x40 DUP4 DUP6 SUB SLT ISZERO PUSH2 0x13E JUMPI PUSH2 0x13D PUSH2 0xC4 JUMP JUMPDEST JUMPDEST PUSH1 0x0 PUSH2 0x14C DUP6 DUP3 DUP7 ADD PUSH2 0x112 JUMP JUMPDEST SWAP3 POP POP PUSH1 0x20 PUSH2 0x15D DUP6 DUP3 DUP7 ADD PUSH2 0x112 JUMP JUMPDEST SWAP2 POP POP SWAP3 POP SWAP3 SWAP1 POP JUMP JUMPDEST PUSH1 0x80 MLOAD PUSH2 0x836 PUSH2 0x182 PUSH1 0x0 CODECOPY PUSH1 0x0 PUSH2 0x29D ADD MSTORE PUSH2 0x836 PUSH1 0x0 RETURN INVALID PUSH1 0x80 PUSH1 0x40 MSTORE PUSH1 0x4 CALLDATASIZE LT PUSH2 0x55 JUMPI PUSH1 0x0 CALLDATALOAD PUSH1 0xE0 SHR DUP1 PUSH4 0x1FE4A686 EQ PUSH2 0x5A JUMPI DUP1 PUSH4 0x43C9C3B7 EQ PUSH2 0x85 JUMPI DUP1 PUSH4 0x4D47732A EQ PUSH2 0xAE JUMPI DUP1 PUSH4 0xB9B8C246 EQ PUSH2 0xD9 JUMPI DUP1 PUSH4 0xBB504317 EQ PUSH2 0xF5 JUMPI DUP1 PUSH4 0xF0EE9A6F EQ PUSH2 0x111 JUMPI JUMPDEST PUSH1 0x0 DUP1 REVERT JUMPDEST CALLVALUE DUP1 ISZERO PUSH2 0x66 JUMPI PUSH1 0x0 DUP1 REVERT JUMPDEST POP PUSH2 0x6F PUSH2 0x13A JUMP JUMPDEST PUSH1 0x40 MLOAD PUSH2 0x7C SWAP2 SWAP1 PUSH2 0x59C JUMP JUMPDEST PUSH1 0x40 MLOAD DUP1 SWAP2 SUB SWAP1 RETURN JUMPDEST CALLVALUE DUP1 ISZERO PUSH2 0x91 JUMPI PUSH1 0x0 DUP1 REVERT JUMPDEST POP PUSH2 0xAC PUSH1 0x4 DUP1 CALLDATASIZE SUB DUP2 ADD SWAP1 PUSH2 0xA7 SWAP2 SWAP1 PUSH2 0x61E JUMP JUMPDEST PUSH2 0x15E JUMP JUMPDEST STOP JUMPDEST CALLVALUE DUP1 ISZERO PUSH2 0xBA JUMPI PUSH1 0x0 DUP1 REVERT JUMPDEST POP PUSH2 0xC3 PUSH2 0x299 JUMP JUMPDEST PUSH1 0x40 MLOAD PUSH2 0xD0 SWAP2 SWAP1 PUSH2 0x680 JUMP JUMPDEST PUSH1 0x40 MLOAD DUP1 SWAP2 SUB SWAP1 RETURN JUMPDEST PUSH2 0xF3 PUSH1 0x4 DUP1 CALLDATASIZE SUB DUP2 ADD SWAP1 PUSH2 0xEE SWAP2 SWAP1 PUSH2 0x69B JUMP JUMPDEST PUSH2 0x2C1 JUMP JUMPDEST STOP JUMPDEST PUSH2 0x10F PUSH1 0x4 DUP1 CALLDATASIZE SUB DUP2 ADD SWAP1 PUSH2 0x10A SWAP2 SWAP1 PUSH2 0x69B JUMP JUMPDEST PUSH2 0x313 JUMP JUMPDEST STOP JUMPDEST CALLVALUE DUP1 ISZERO PUSH2 0x11D JUMPI PUSH1 0x0 DUP1 REVERT JUMPDEST POP PUSH2 0x138 PUSH1 0x4 DUP1 CALLDATASIZE SUB DUP2 ADD SWAP1 PUSH2 0x133 SWAP2 SWAP1 PUSH2 0x69B JUMP JUMPDEST PUSH2 0x46E JUMP JUMPDEST STOP JUMPDEST PUSH1 0x0 DUP1 SLOAD SWAP1 PUSH2 0x100 EXP SWAP1 DIV PUSH20 0xFFFFFFFFFFFFFFFFFFFFFFFFFFFFFFFFFFFFFFFF AND DUP2 JUMP JUMPDEST PUSH1 0x2 PUSH1 0x0 SWAP1 SLOAD SWAP1 PUSH2 0x100 EXP SWAP1 DIV PUSH20 0xFFFFFFFFFFFFFFFFFFFFFFFFFFFFFFFFFFFFFFFF AND PUSH20 0xFFFFFFFFFFFFFFFFFFFFFFFFFFFFFFFFFFFFFFFF AND CALLER PUSH20 0xFFFFFFFFFFFFFFFFFFFFFFFFFFFFFFFFFFFFFFFF AND EQ PUSH2 0x1B8 JUMPI PUSH1 0x0 DUP1 REVERT JUMPDEST PUSH1 0x3 PUSH1 0x0 SWAP1 SLOAD SWAP1 PUSH2 0x100 EXP SWAP1 DIV PUSH20 0xFFFFFFFFFFFFFFFFFFFFFFFFFFFFFFFFFFFFFFFF AND PUSH20 0xFFFFFFFFFFFFFFFFFFFFFFFFFFFFFFFFFFFFFFFF AND PUSH4 0xA9059CBB DUP5 DUP4 PUSH1 0x40 MLOAD DUP4 PUSH4 0xFFFFFFFF AND PUSH1 0xE0 SHL DUP2 MSTORE PUSH1 0x4 ADD PUSH2 0x215 SWAP3 SWAP2 SWAP1 PUSH2 0x6DB JUMP JUMPDEST PUSH1 0x20 PUSH1 0x40 MLOAD DUP1 DUP4 SUB DUP2 PUSH1 0x0 DUP8 GAS CALL ISZERO DUP1 ISZERO PUSH2 0x234 JUMPI RETURNDATASIZE PUSH1 0x0 DUP1 RETURNDATACOPY RETURNDATASIZE PUSH1 0x0 REVERT JUMPDEST POP POP POP POP PUSH1 0x40 MLOAD RETURNDATASIZE PUSH1 0x1F NOT PUSH1 0x1F DUP3 ADD AND DUP3 ADD DUP1 PUSH1 0x40 MSTORE POP DUP2 ADD SWAP1 PUSH2 0x258 SWAP2 SWAP1 PUSH2 0x73C JUMP JUMPDEST POP PUSH32 0xCAFD59F7FC2C5CA06DB768647429ABAF7D4BBD26D7B7F3B61090FDD8F2E44726 DUP4 DUP4 DUP4 PUSH1 0x40 MLOAD PUSH2 0x28C SWAP4 SWAP3 SWAP2 SWAP1 PUSH2 0x769 JUMP JUMPDEST PUSH1 0x40 MLOAD DUP1 SWAP2 SUB SWAP1 LOG1 POP POP POP JUMP JUMPDEST PUSH1 0x0 PUSH32 0x0 SWAP1 POP SWAP1 JUMP JUMPDEST DUP2 PUSH20 0xFFFFFFFFFFFFFFFFFFFFFFFFFFFFFFFFFFFFFFFF AND PUSH32 0xD90D253A9DE34D2FDD5A75AE49EA17FCB43AF32FC8EA08CC6D2341991DD3872E DUP3 PUSH1 0x40 MLOAD PUSH2 0x307 SWAP2 SWAP1 PUSH2 0x680 JUMP JUMPDEST PUSH1 0x40 MLOAD DUP1 SWAP2 SUB SWAP1 LOG2 POP POP JUMP JUMPDEST PUSH1 0x1 PUSH1 0x0 SWAP1 SLOAD SWAP1 PUSH2 0x100 EXP SWAP1 DIV PUSH20 0xFFFFFFFFFFFFFFFFFFFFFFFFFFFFFFFFFFFFFFFF AND PUSH20 0xFFFFFFFFFFFFFFFFFFFFFFFFFFFFFFFFFFFFFFFF AND PUSH4 0x23B872DD DUP4 ADDRESS DUP5 PUSH1 0x40 MLOAD DUP5 PUSH4 0xFFFFFFFF AND PUSH1 0xE0 SHL DUP2 MSTORE PUSH1 0x4 ADD PUSH2 0x372 SWAP4 SWAP3 SWAP2 SWAP1 PUSH2 0x7A0 JUMP JUMPDEST PUSH1 0x0 PUSH1 0x40 MLOAD DUP1 DUP4 SUB DUP2 PUSH1 0x0 DUP8 DUP1 EXTCODESIZE ISZERO DUP1 ISZERO PUSH2 0x38C JUMPI PUSH1 0x0 DUP1 REVERT JUMPDEST POP GAS CALL ISZERO DUP1 ISZERO PUSH2 0x3A0 JUMPI RETURNDATASIZE PUSH1 0x0 DUP1 RETURNDATACOPY RETURNDATASIZE PUSH1 0x0 REVERT JUMPDEST POP POP POP POP PUSH1 0x1 PUSH1 0x0 SWAP1 SLOAD SWAP1 PUSH2 0x100 EXP SWAP1 DIV PUSH20 0xFFFFFFFFFFFFFFFFFFFFFFFFFFFFFFFFFFFFFFFF AND PUSH20 0xFFFFFFFFFFFFFFFFFFFFFFFFFFFFFFFFFFFFFFFF AND PUSH4 0x2E1A7D4D DUP3 PUSH1 0x40 MLOAD DUP3 PUSH4 0xFFFFFFFF AND PUSH1 0xE0 SHL DUP2 MSTORE PUSH1 0x4 ADD PUSH2 0x3FF SWAP2 SWAP1 PUSH2 0x680 JUMP JUMPDEST PUSH1 0x0 PUSH1 0x40 MLOAD DUP1 DUP4 SUB DUP2 PUSH1 0x0 DUP8 DUP1 EXTCODESIZE ISZERO DUP1 ISZERO PUSH2 0x419 JUMPI PUSH1 0x0 DUP1 REVERT JUMPDEST POP GAS CALL ISZERO DUP1 ISZERO PUSH2 0x42D JUMPI RETURNDATASIZE PUSH1 0x0 DUP1 RETURNDATACOPY RETURNDATASIZE PUSH1 0x0 REVERT JUMPDEST POP POP POP POP PUSH32 0xB6FF4CC3414E3CFB00220F9550656381A72CF3AF632175BDAD0EE6C994CF8470 DUP3 DUP3 PUSH1 0x40 MLOAD PUSH2 0x462 SWAP3 SWAP2 SWAP1 PUSH2 0x6DB JUMP JUMPDEST PUSH1 0x40 MLOAD DUP1 SWAP2 SUB SWAP1 LOG1 POP POP JUMP JUMPDEST PUSH1 0x2 PUSH1 0x0 SWAP1 SLOAD SWAP1 PUSH2 0x100 EXP SWAP1 DIV PUSH20 0xFFFFFFFFFFFFFFFFFFFFFFFFFFFFFFFFFFFFFFFF AND PUSH20 0xFFFFFFFFFFFFFFFFFFFFFFFFFFFFFFFFFFFFFFFF AND CALLER PUSH20 0xFFFFFFFFFFFFFFFFFFFFFFFFFFFFFFFFFFFFFFFF AND EQ PUSH2 0x4C8 JUMPI PUSH1 0x0 DUP1 REVERT JUMPDEST PUSH1 0x1 PUSH1 0x0 SWAP1 SLOAD SWAP1 PUSH2 0x100 EXP SWAP1 DIV PUSH20 0xFFFFFFFFFFFFFFFFFFFFFFFFFFFFFFFFFFFFFFFF AND PUSH20 0xFFFFFFFFFFFFFFFFFFFFFFFFFFFFFFFFFFFFFFFF AND PUSH4 0x6E553F65 DUP3 DUP5 PUSH1 0x40 MLOAD DUP4 PUSH4 0xFFFFFFFF AND PUSH1 0xE0 SHL DUP2 MSTORE PUSH1 0x4 ADD PUSH2 0x525 SWAP3 SWAP2 SWAP1 PUSH2 0x7D7 JUMP JUMPDEST PUSH1 0x0 PUSH1 0x40 MLOAD DUP1 DUP4 SUB DUP2 PUSH1 0x0 DUP8 DUP1 EXTCODESIZE ISZERO DUP1 ISZERO PUSH2 0x53F JUMPI PUSH1 0x0 DUP1 REVERT JUMPDEST POP GAS CALL ISZERO DUP1 ISZERO PUSH2 0x553 JUMPI RETURNDATASIZE PUSH1 0x0 DUP1 RETURNDATACOPY RETURNDATASIZE PUSH1 0x0 REVERT JUMPDEST POP POP POP POP POP POP JUMP JUMPDEST PUSH1 0x0 PUSH20 0xFFFFFFFFFFFFFFFFFFFFFFFFFFFFFFFFFFFFFFFF DUP3 AND SWAP1 POP SWAP2 SWAP1 POP JUMP JUMPDEST PUSH1 0x0 PUSH2 0x586 DUP3 PUSH2 0x55B JUMP JUMPDEST SWAP1 POP SWAP2 SWAP1 POP JUMP JUMPDEST PUSH2 0x596 DUP2 PUSH2 0x57B JUMP JUMPDEST DUP3 MSTORE POP POP JUMP JUMPDEST PUSH1 0x0 PUSH1 0x20 DUP3 ADD SWAP1 POP PUSH2 0x5B1 PUSH1 0x0 DUP4 ADD DUP5 PUSH2 0x58D JUMP JUMPDEST SWAP3 SWAP2 POP POP JUMP JUMPDEST PUSH1 0x0 DUP1 REVERT JUMPDEST PUSH2 0x5C5 DUP2 PUSH2 0x57B JUMP JUMPDEST DUP2 EQ PUSH2 0x5D0 JUMPI PUSH1 0x0 DUP1 REVERT JUMPDEST POP JUMP JUMPDEST PUSH1 0x0 DUP2 CALLDATALOAD SWAP1 POP PUSH2 0x5E2 DUP2 PUSH2 0x5BC JUMP JUMPDEST SWAP3 SWAP2 POP POP JUMP JUMPDEST PUSH1 0x0 DUP2 SWAP1 POP SWAP2 SWAP1 POP JUMP JUMPDEST PUSH2 0x5FB DUP2 PUSH2 0x5E8 JUMP JUMPDEST DUP2 EQ PUSH2 0x606 JUMPI PUSH1 0x0 DUP1 REVERT JUMPDEST POP JUMP JUMPDEST PUSH1 0x0 DUP2 CALLDATALOAD SWAP1 POP PUSH2 0x618 DUP2 PUSH2 0x5F2 JUMP JUMPDEST SWAP3 SWAP2 POP POP JUMP JUMPDEST PUSH1 0x0 DUP1 PUSH1 0x0 PUSH1 0x60 DUP5 DUP7 SUB SLT ISZERO PUSH2 0x637 JUMPI PUSH2 0x636 PUSH2 0x5B7 JUMP JUMPDEST JUMPDEST PUSH1 0x0 PUSH2 0x645 DUP7 DUP3 DUP8 ADD PUSH2 0x5D3 JUMP JUMPDEST SWAP4 POP POP PUSH1 0x20 PUSH2 0x656 DUP7 DUP3 DUP8 ADD PUSH2 0x609 JUMP JUMPDEST SWAP3 POP POP PUSH1 0x40 PUSH2 0x667 DUP7 DUP3 DUP8 ADD PUSH2 0x609 JUMP JUMPDEST SWAP2 POP POP SWAP3 POP SWAP3 POP SWAP3 JUMP JUMPDEST PUSH2 0x67A DUP2 PUSH2 0x5E8 JUMP JUMPDEST DUP3 MSTORE POP POP JUMP JUMPDEST PUSH1 0x0 PUSH1 0x20 DUP3 ADD SWAP1 POP PUSH2 0x695 PUSH1 0x0 DUP4 ADD DUP5 PUSH2 0x671 JUMP JUMPDEST SWAP3 SWAP2 POP POP JUMP JUMPDEST PUSH1 0x0 DUP1 PUSH1 0x40 DUP4 DUP6 SUB SLT ISZERO PUSH2 0x6B2 JUMPI PUSH2 0x6B1 PUSH2 0x5B7 JUMP JUMPDEST JUMPDEST PUSH1 0x0 PUSH2 0x6C0 DUP6 DUP3 DUP7 ADD PUSH2 0x5D3 JUMP JUMPDEST SWAP3 POP POP PUSH1 0x20 PUSH2 0x6D1 DUP6 DUP3 DUP7 ADD PUSH2 0x609 JUMP JUMPDEST SWAP2 POP POP SWAP3 POP SWAP3 SWAP1 POP JUMP JUMPDEST PUSH1 0x0 PUSH1 0x40 DUP3 ADD SWAP1 POP PUSH2 0x6F0 PUSH1 0x0 DUP4 ADD DUP6 PUSH2 0x58D JUMP JUMPDEST PUSH2 0x6FD PUSH1 0x20 DUP4 ADD DUP5 PUSH2 0x671 JUMP JUMPDEST SWAP4 SWAP3 POP POP POP JUMP JUMPDEST PUSH1 0x0 DUP2 ISZERO ISZERO SWAP1 POP SWAP2 SWAP1 POP JUMP JUMPDEST PUSH2 0x719 DUP2 PUSH2 0x704 JUMP JUMPDEST DUP2 EQ PUSH2 0x724 JUMPI PUSH1 0x0 DUP1 REVERT JUMPDEST POP JUMP JUMPDEST PUSH1 0x0 DUP2 MLOAD SWAP1 POP PUSH2 0x736 DUP2 PUSH2 0x710 JUMP JUMPDEST SWAP3 SWAP2 POP POP JUMP JUMPDEST PUSH1 0x0 PUSH1 0x20 DUP3 DUP5 SUB SLT ISZERO PUSH2 0x752 JUMPI PUSH2 0x751 PUSH2 0x5B7 JUMP JUMPDEST JUMPDEST PUSH1 0x0 PUSH2 0x760 DUP5 DUP3 DUP6 ADD PUSH2 0x727 JUMP JUMPDEST SWAP2 POP POP SWAP3 SWAP2 POP POP JUMP JUMPDEST PUSH1 0x0 PUSH1 0x60 DUP3 ADD SWAP1 POP PUSH2 0x77E PUSH1 0x0 DUP4 ADD DUP7 PUSH2 0x58D JUMP JUMPDEST PUSH2 0x78B PUSH1 0x20 DUP4 ADD DUP6 PUSH2 0x671 JUMP JUMPDEST PUSH2 0x798 PUSH1 0x40 DUP4 ADD DUP5 PUSH2 0x671 JUMP JUMPDEST SWAP5 SWAP4 POP POP POP POP JUMP JUMPDEST PUSH1 0x0 PUSH1 0x60 DUP3 ADD SWAP1 POP PUSH2 0x7B5 PUSH1 0x0 DUP4 ADD DUP7 PUSH2 0x58D JUMP JUMPDEST PUSH2 0x7C2 PUSH1 0x20 DUP4 ADD DUP6 PUSH2 0x58D JUMP JUMPDEST PUSH2 0x7CF PUSH1 0x40 DUP4 ADD DUP5 PUSH2 0x671 JUMP JUMPDEST SWAP5 SWAP4 POP POP POP POP JUMP JUMPDEST PUSH1 0x0 PUSH1 0x40 DUP3 ADD SWAP1 POP PUSH2 0x7EC PUSH1 0x0 DUP4 ADD DUP6 PUSH2 0x671 JUMP JUMPDEST PUSH2 0x7F9 PUSH1 0x20 DUP4 ADD DUP5 PUSH2 0x58D JUMP JUMPDEST SWAP4 SWAP3 POP POP POP JUMP INVALID LOG2 PUSH5 0x6970667358 0x22 SLT KECCAK256 0xFC DUP11 PUSH14 0x51595B9D62EFA3038D58D6CDA6FB BLOCKHASH ADD RETURNDATACOPY JUMPDEST EXP SWAP13 SGT 0xEF 0x28 LOG3 SWAP16 RETURNDATACOPY 0xB2 0xEE 0xD9 PUSH5 0x736F6C6343 STOP ADDMOD SLT STOP CALLER "},"methodIdentifiers":{"digestFromOffchainDivest(address,uint256,uint256)":"43c9c3b7","digestFromOffchainInvest(address,uint256)":"f0ee9a6f","divest(address,uint256)":"bb504317","getRoyalty()":"4d47732a","invest(address,uint256)":"b9b8c246","strategist()":"1fe4a686"}}}}}