{
  "_format": "hh-sol-artifact-1",
  "contractName": "Strategy2",
  "sourceName": "contracts/src/Strategies/Strategy2/Strategy2.sol",
  "abi": [
    {
      "inputs": [
        {
          "internalType": "address",
          "name": "_yearnStrategy",
          "type": "address"
        },
        {
          "internalType": "address",
          "name": "_offchain",
          "type": "address"
        }
      ],
      "stateMutability": "nonpayable",
      "type": "constructor"
    },
    {
      "anonymous": false,
      "inputs": [
        {
          "indexed": false,
          "internalType": "address",
          "name": "user",
          "type": "address"
        },
        {
          "indexed": false,
          "internalType": "uint256",
          "name": "invested_amount",
          "type": "uint256"
        },
        {
          "indexed": false,
          "internalType": "uint256",
          "name": "received_amount",
          "type": "uint256"
        }
      ],
      "name": "Divest",
      "type": "event"
    },
    {
      "anonymous": false,
      "inputs": [
        {
          "indexed": false,
          "internalType": "address",
          "name": "user",
          "type": "address"
        },
        {
          "indexed": false,
          "internalType": "address",
          "name": "strategist",
          "type": "address"
        },
        {
          "indexed": false,
          "internalType": "uint256",
          "name": "fee_amount",
          "type": "uint256"
        }
      ],
      "name": "FeeDeduction",
      "type": "event"
    },
    {
      "anonymous": false,
      "inputs": [
        {
          "indexed": true,
          "internalType": "address",
          "name": "user",
          "type": "address"
        },
        {
          "indexed": false,
          "internalType": "uint256",
          "name": "amount",
          "type": "uint256"
        }
      ],
      "name": "Invest",
      "type": "event"
    },
    {
      "anonymous": false,
      "inputs": [
        {
          "indexed": false,
          "internalType": "address",
          "name": "user",
          "type": "address"
        },
        {
          "indexed": false,
          "internalType": "uint256",
          "name": "amount",
          "type": "uint256"
        }
      ],
      "name": "OffchainDivest",
      "type": "event"
    },
    {
      "inputs": [
        {
          "internalType": "address",
          "name": "user",
          "type": "address"
        },
        {
          "internalType": "uint256",
          "name": "amountReq",
          "type": "uint256"
        },
        {
          "internalType": "uint256",
          "name": "amountRecBaseMarket",
          "type": "uint256"
        }
      ],
      "name": "digestFromOffchainDivest",
      "outputs": [],
      "stateMutability": "nonpayable",
      "type": "function"
    },
    {
      "inputs": [
        {
          "internalType": "address",
          "name": "user",
          "type": "address"
        },
        {
          "internalType": "uint256",
          "name": "amount",
          "type": "uint256"
        }
      ],
      "name": "digestFromOffchainInvest",
      "outputs": [],
      "stateMutability": "nonpayable",
      "type": "function"
    },
    {
      "inputs": [
        {
          "internalType": "address",
          "name": "user",
          "type": "address"
        },
        {
          "internalType": "uint256",
          "name": "amount",
          "type": "uint256"
        }
      ],
      "name": "divest",
      "outputs": [],
      "stateMutability": "payable",
      "type": "function"
    },
    {
      "inputs": [],
      "name": "getRoyalty",
      "outputs": [
        {
          "internalType": "uint256",
          "name": "",
          "type": "uint256"
        }
      ],
      "stateMutability": "pure",
      "type": "function"
    },
    {
      "inputs": [
        {
          "internalType": "address",
          "name": "user",
          "type": "address"
        },
        {
          "internalType": "uint256",
          "name": "amount",
          "type": "uint256"
        }
      ],
      "name": "invest",
      "outputs": [],
      "stateMutability": "payable",
      "type": "function"
    },
    {
      "inputs": [],
      "name": "strategist",
      "outputs": [
        {
          "internalType": "address",
          "name": "",
          "type": "address"
        }
      ],
      "stateMutability": "view",
      "type": "function"
    }
  ],
  "bytecode": "0x60a06040526103e860809081525034801561001957600080fd5b506040516109b83803806109b8833981810160405281019061003b9190610127565b81600160006101000a81548173ffffffffffffffffffffffffffffffffffffffff021916908373ffffffffffffffffffffffffffffffffffffffff16021790555080600260006101000a81548173ffffffffffffffffffffffffffffffffffffffff021916908373ffffffffffffffffffffffffffffffffffffffff1602179055505050610167565b600080fd5b600073ffffffffffffffffffffffffffffffffffffffff82169050919050565b60006100f4826100c9565b9050919050565b610104816100e9565b811461010f57600080fd5b50565b600081519050610121816100fb565b92915050565b6000806040838503121561013e5761013d6100c4565b5b600061014c85828601610112565b925050602061015d85828601610112565b9150509250929050565b608051610836610182600039600061029d01526108366000f3fe6080604052600436106100555760003560e01c80631fe4a6861461005a57806343c9c3b7146100855780634d47732a146100ae578063b9b8c246146100d9578063bb504317146100f5578063f0ee9a6f14610111575b600080fd5b34801561006657600080fd5b5061006f61013a565b60405161007c919061059c565b60405180910390f35b34801561009157600080fd5b506100ac60048036038101906100a7919061061e565b61015e565b005b3480156100ba57600080fd5b506100c3610299565b6040516100d09190610680565b60405180910390f35b6100f360048036038101906100ee919061069b565b6102c1565b005b61010f600480360381019061010a919061069b565b610313565b005b34801561011d57600080fd5b506101386004803603810190610133919061069b565b61046e565b005b60008054906101000a900473ffffffffffffffffffffffffffffffffffffffff1681565b600260009054906101000a900473ffffffffffffffffffffffffffffffffffffffff1673ffffffffffffffffffffffffffffffffffffffff163373ffffffffffffffffffffffffffffffffffffffff16146101b857600080fd5b600360009054906101000a900473ffffffffffffffffffffffffffffffffffffffff1673ffffffffffffffffffffffffffffffffffffffff1663a9059cbb84836040518363ffffffff1660e01b81526004016102159291906106db565b6020604051808303816000875af1158015610234573d6000803e3d6000fd5b505050506040513d601f19601f82011682018060405250810190610258919061073c565b507fcafd59f7fc2c5ca06db768647429abaf7d4bbd26d7b7f3b61090fdd8f2e4472683838360405161028c93929190610769565b60405180910390a1505050565b60007f0000000000000000000000000000000000000000000000000000000000000000905090565b8173ffffffffffffffffffffffffffffffffffffffff167fd90d253a9de34d2fdd5a75ae49ea17fcb43af32fc8ea08cc6d2341991dd3872e826040516103079190610680565b60405180910390a25050565b600160009054906101000a900473ffffffffffffffffffffffffffffffffffffffff1673ffffffffffffffffffffffffffffffffffffffff166323b872dd8330846040518463ffffffff1660e01b8152600401610372939291906107a0565b600060405180830381600087803b15801561038c57600080fd5b505af11580156103a0573d6000803e3d6000fd5b50505050600160009054906101000a900473ffffffffffffffffffffffffffffffffffffffff1673ffffffffffffffffffffffffffffffffffffffff16632e1a7d4d826040518263ffffffff1660e01b81526004016103ff9190610680565b600060405180830381600087803b15801561041957600080fd5b505af115801561042d573d6000803e3d6000fd5b505050507fb6ff4cc3414e3cfb00220f9550656381a72cf3af632175bdad0ee6c994cf847082826040516104629291906106db565b60405180910390a15050565b600260009054906101000a900473ffffffffffffffffffffffffffffffffffffffff1673ffffffffffffffffffffffffffffffffffffffff163373ffffffffffffffffffffffffffffffffffffffff16146104c857600080fd5b600160009054906101000a900473ffffffffffffffffffffffffffffffffffffffff1673ffffffffffffffffffffffffffffffffffffffff16636e553f6582846040518363ffffffff1660e01b81526004016105259291906107d7565b600060405180830381600087803b15801561053f57600080fd5b505af1158015610553573d6000803e3d6000fd5b505050505050565b600073ffffffffffffffffffffffffffffffffffffffff82169050919050565b60006105868261055b565b9050919050565b6105968161057b565b82525050565b60006020820190506105b1600083018461058d565b92915050565b600080fd5b6105c58161057b565b81146105d057600080fd5b50565b6000813590506105e2816105bc565b92915050565b6000819050919050565b6105fb816105e8565b811461060657600080fd5b50565b600081359050610618816105f2565b92915050565b600080600060608486031215610637576106366105b7565b5b6000610645868287016105d3565b935050602061065686828701610609565b925050604061066786828701610609565b9150509250925092565b61067a816105e8565b82525050565b60006020820190506106956000830184610671565b92915050565b600080604083850312156106b2576106b16105b7565b5b60006106c0858286016105d3565b92505060206106d185828601610609565b9150509250929050565b60006040820190506106f0600083018561058d565b6106fd6020830184610671565b9392505050565b60008115159050919050565b61071981610704565b811461072457600080fd5b50565b60008151905061073681610710565b92915050565b600060208284031215610752576107516105b7565b5b600061076084828501610727565b91505092915050565b600060608201905061077e600083018661058d565b61078b6020830185610671565b6107986040830184610671565b949350505050565b60006060820190506107b5600083018661058d565b6107c2602083018561058d565b6107cf6040830184610671565b949350505050565b60006040820190506107ec6000830185610671565b6107f9602083018461058d565b939250505056fea2646970667358221220fc8a6d51595b9d62efa3038d58d6cda6fb40013e5b0a9c13ef28a39f3eb2eed964736f6c63430008120033",
  "linkReferences": {},
  "deployedLinkReferences": {}
}