{
  "_format": "hh-sol-artifact-1",
  "contractName": "Strategy3",
  "sourceName": "contracts/src/Strategies/Strategy3/Strategy3.sol",
  "abi": [
    {
      "inputs": [
        {
          "internalType": "address",
          "name": "_WMATIC",
          "type": "address"
        },
        {
          "internalType": "address",
          "name": "_WBTC",
          "type": "address"
        },
        {
          "internalType": "address",
          "name": "_UniswapRouterV3",
          "type": "address"
        },
        {
          "internalType": "address",
          "name": "_AaveLendingPoolv3",
          "type": "address"
        },
        {
          "internalType": "address",
          "name": "_strategyManager",
          "type": "address"
        },
        {
          "internalType": "address",
          "name": "_aBTC",
          "type": "address"
        }
      ],
      "stateMutability": "nonpayable",
      "type": "constructor"
    },
    {
      "anonymous": false,
      "inputs": [
        {
          "indexed": false,
          "internalType": "address",
          "name": "user",
          "type": "address"
        },
        {
          "indexed": false,
          "internalType": "uint256",
          "name": "invested_amount",
          "type": "uint256"
        },
        {
          "indexed": false,
          "internalType": "uint256",
          "name": "received_amount",
          "type": "uint256"
        }
      ],
      "name": "Divest",
      "type": "event"
    },
    {
      "anonymous": false,
      "inputs": [
        {
          "indexed": false,
          "internalType": "address",
          "name": "user",
          "type": "address"
        },
        {
          "indexed": false,
          "internalType": "address",
          "name": "strategist",
          "type": "address"
        },
        {
          "indexed": false,
          "internalType": "uint256",
          "name": "fee_amount",
          "type": "uint256"
        }
      ],
      "name": "FeeDeduction",
      "type": "event"
    },
    {
      "anonymous": false,
      "inputs": [
        {
          "indexed": true,
          "internalType": "address",
          "name": "user",
          "type": "address"
        },
        {
          "indexed": false,
          "internalType": "uint256",
          "name": "amount",
          "type": "uint256"
        }
      ],
      "name": "Invest",
      "type": "event"
    },
    {
      "inputs": [],
      "name": "AaveLendingPoolv3",
      "outputs": [
        {
          "internalType": "address",
          "name": "",
          "type": "address"
        }
      ],
      "stateMutability": "view",
      "type": "function"
    },
    {
      "inputs": [],
      "name": "UniswapV3Router",
      "outputs": [
        {
          "internalType": "address",
          "name": "",
          "type": "address"
        }
      ],
      "stateMutability": "view",
      "type": "function"
    },
    {
      "inputs": [],
      "name": "WBTC",
      "outputs": [
        {
          "internalType": "address",
          "name": "",
          "type": "address"
        }
      ],
      "stateMutability": "view",
      "type": "function"
    },
    {
      "inputs": [],
      "name": "WMATIC",
      "outputs": [
        {
          "internalType": "address",
          "name": "",
          "type": "address"
        }
      ],
      "stateMutability": "view",
      "type": "function"
    },
    {
      "inputs": [],
      "name": "aBTC",
      "outputs": [
        {
          "internalType": "address",
          "name": "",
          "type": "address"
        }
      ],
      "stateMutability": "view",
      "type": "function"
    },
    {
      "inputs": [
        {
          "internalType": "address",
          "name": "user",
          "type": "address"
        },
        {
          "internalType": "uint256",
          "name": "amount",
          "type": "uint256"
        }
      ],
      "name": "divest",
      "outputs": [],
      "stateMutability": "payable",
      "type": "function"
    },
    {
      "inputs": [],
      "name": "fee",
      "outputs": [
        {
          "internalType": "uint256",
          "name": "",
          "type": "uint256"
        }
      ],
      "stateMutability": "view",
      "type": "function"
    },
    {
      "inputs": [],
      "name": "getRoyalty",
      "outputs": [
        {
          "internalType": "uint256",
          "name": "",
          "type": "uint256"
        }
      ],
      "stateMutability": "pure",
      "type": "function"
    },
    {
      "inputs": [
        {
          "internalType": "address",
          "name": "user",
          "type": "address"
        },
        {
          "internalType": "uint256",
          "name": "amt",
          "type": "uint256"
        }
      ],
      "name": "invest",
      "outputs": [],
      "stateMutability": "payable",
      "type": "function"
    },
    {
      "inputs": [],
      "name": "strategist",
      "outputs": [
        {
          "internalType": "address",
          "name": "",
          "type": "address"
        }
      ],
      "stateMutability": "view",
      "type": "function"
    },
    {
      "inputs": [],
      "name": "strategyManager",
      "outputs": [
        {
          "internalType": "address",
          "name": "",
          "type": "address"
        }
      ],
      "stateMutability": "view",
      "type": "function"
    },
    {
      "stateMutability": "payable",
      "type": "receive"
    }
  ],
  "bytecode": "0x6101406040523480156200001257600080fd5b506040516200160e3803806200160e8339818101604052810190620000389190620001e8565b8573ffffffffffffffffffffffffffffffffffffffff1660a08173ffffffffffffffffffffffffffffffffffffffff16815250508473ffffffffffffffffffffffffffffffffffffffff1660c08173ffffffffffffffffffffffffffffffffffffffff16815250508373ffffffffffffffffffffffffffffffffffffffff1660e08173ffffffffffffffffffffffffffffffffffffffff16815250508273ffffffffffffffffffffffffffffffffffffffff166101008173ffffffffffffffffffffffffffffffffffffffff16815250508173ffffffffffffffffffffffffffffffffffffffff1660808173ffffffffffffffffffffffffffffffffffffffff16815250508073ffffffffffffffffffffffffffffffffffffffff166101208173ffffffffffffffffffffffffffffffffffffffff168152505050505050505062000284565b600080fd5b600073ffffffffffffffffffffffffffffffffffffffff82169050919050565b6000620001b08262000183565b9050919050565b620001c281620001a3565b8114620001ce57600080fd5b50565b600081519050620001e281620001b7565b92915050565b60008060008060008060c087890312156200020857620002076200017e565b5b60006200021889828a01620001d1565b96505060206200022b89828a01620001d1565b95505060406200023e89828a01620001d1565b94505060606200025189828a01620001d1565b93505060806200026489828a01620001d1565b92505060a06200027789828a01620001d1565b9150509295509295509295565b60805160a05160c05160e05161010051610120516112bc6200035260003960008181610269015261082501526000818161034b0152818161069a0152818161071d0152610920015260008181610327015281816105c001528181610a1e0152610b82015260008181610303015281816105290152818161065e015281816107590152818161095c015281816109e20152610aaf0152600081816102df015281816103d4015281816104ed0152610aeb0152600081816102b10152818161036f01526108c601526112bc6000f3fe6080604052600436106100a05760003560e01c80634dede3de116100645780634dede3de146101835780638c0a4ef0146101ae578063b55530e6146101d9578063b9b8c24614610204578063bb50431714610220578063ddca3f431461023c576100a7565b80631db26be5146100ac5780631fe4a686146100d757806339b70e38146101025780634d47732a1461012d5780634d95cad914610158576100a7565b366100a757005b600080fd5b3480156100b857600080fd5b506100c1610267565b6040516100ce9190610d7f565b60405180910390f35b3480156100e357600080fd5b506100ec61028b565b6040516100f99190610d7f565b60405180910390f35b34801561010e57600080fd5b506101176102af565b6040516101249190610d7f565b60405180910390f35b34801561013957600080fd5b506101426102d3565b60405161014f9190610db3565b60405180910390f35b34801561016457600080fd5b5061016d6102dd565b60405161017a9190610d7f565b60405180910390f35b34801561018f57600080fd5b50610198610301565b6040516101a59190610d7f565b60405180910390f35b3480156101ba57600080fd5b506101c3610325565b6040516101d09190610d7f565b60405180910390f35b3480156101e557600080fd5b506101ee610349565b6040516101fb9190610d7f565b60405180910390f35b61021e60048036038101906102199190610e2b565b61036d565b005b61023a60048036038101906102359190610e2b565b610823565b005b34801561024857600080fd5b50610251610d38565b60405161025e9190610db3565b60405180910390f35b7f000000000000000000000000000000000000000000000000000000000000000081565b60008054906101000a900473ffffffffffffffffffffffffffffffffffffffff1681565b7f000000000000000000000000000000000000000000000000000000000000000081565b60006103e8905090565b7f000000000000000000000000000000000000000000000000000000000000000081565b7f000000000000000000000000000000000000000000000000000000000000000081565b7f000000000000000000000000000000000000000000000000000000000000000081565b7f000000000000000000000000000000000000000000000000000000000000000081565b7f000000000000000000000000000000000000000000000000000000000000000073ffffffffffffffffffffffffffffffffffffffff163373ffffffffffffffffffffffffffffffffffffffff16146103c557600080fd5b600081146103d257600080fd5b7f000000000000000000000000000000000000000000000000000000000000000073ffffffffffffffffffffffffffffffffffffffff1663d0e30db0346040518263ffffffff1660e01b81526004016000604051808303818588803b15801561043a57600080fd5b505af115801561044e573d6000803e3d6000fd5b505050505060006127106103e8346104669190610e9a565b6104709190610f0b565b9050600081346104809190610f3c565b90507f66c3a233e2d1f4724bc6f0753c0eea5baef94feefc9b52698e64ed7bb48f962a8460008054906101000a900473ffffffffffffffffffffffffffffffffffffffff16846040516104d593929190610f70565b60405180910390a160006040518061010001604052807f000000000000000000000000000000000000000000000000000000000000000073ffffffffffffffffffffffffffffffffffffffff1681526020017f000000000000000000000000000000000000000000000000000000000000000073ffffffffffffffffffffffffffffffffffffffff168152602001610bb862ffffff1681526020013073ffffffffffffffffffffffffffffffffffffffff16815260200142815260200183815260200160008152602001600073ffffffffffffffffffffffffffffffffffffffff16815250905060007f000000000000000000000000000000000000000000000000000000000000000073ffffffffffffffffffffffffffffffffffffffff1663414bf389836040518263ffffffff1660e01b81526004016106179190611094565b6020604051808303816000875af1158015610636573d6000803e3d6000fd5b505050506040513d601f19601f8201168201806040525081019061065a91906110c5565b90507f000000000000000000000000000000000000000000000000000000000000000073ffffffffffffffffffffffffffffffffffffffff1663095ea7b37f0000000000000000000000000000000000000000000000000000000000000000836040518363ffffffff1660e01b81526004016106d79291906110f2565b6020604051808303816000875af11580156106f6573d6000803e3d6000fd5b505050506040513d601f19601f8201168201806040525081019061071a9190611153565b507f000000000000000000000000000000000000000000000000000000000000000073ffffffffffffffffffffffffffffffffffffffff1663617ba0377f0000000000000000000000000000000000000000000000000000000000000000838960006040518563ffffffff1660e01b815260040161079b94939291906111d3565b600060405180830381600087803b1580156107b557600080fd5b505af11580156107c9573d6000803e3d6000fd5b505050508573ffffffffffffffffffffffffffffffffffffffff167fd90d253a9de34d2fdd5a75ae49ea17fcb43af32fc8ea08cc6d2341991dd3872e826040516108139190610db3565b60405180910390a2505050505050565b7f000000000000000000000000000000000000000000000000000000000000000073ffffffffffffffffffffffffffffffffffffffff166323b872dd3330846040518463ffffffff1660e01b815260040161088093929190610f70565b6020604051808303816000875af115801561089f573d6000803e3d6000fd5b505050506040513d601f19601f820116820180604052508101906108c39190611153565b507f000000000000000000000000000000000000000000000000000000000000000073ffffffffffffffffffffffffffffffffffffffff163373ffffffffffffffffffffffffffffffffffffffff161461091c57600080fd5b60007f000000000000000000000000000000000000000000000000000000000000000073ffffffffffffffffffffffffffffffffffffffff166369328dec7f000000000000000000000000000000000000000000000000000000000000000084306040518463ffffffff1660e01b815260040161099b93929190611218565b6020604051808303816000875af11580156109ba573d6000803e3d6000fd5b505050506040513d601f19601f820116820180604052508101906109de91906110c5565b90507f000000000000000000000000000000000000000000000000000000000000000073ffffffffffffffffffffffffffffffffffffffff1663095ea7b37f0000000000000000000000000000000000000000000000000000000000000000836040518363ffffffff1660e01b8152600401610a5b9291906110f2565b6020604051808303816000875af1158015610a7a573d6000803e3d6000fd5b505050506040513d601f19601f82011682018060405250810190610a9e9190611153565b5060006040518061010001604052807f000000000000000000000000000000000000000000000000000000000000000073ffffffffffffffffffffffffffffffffffffffff1681526020017f000000000000000000000000000000000000000000000000000000000000000073ffffffffffffffffffffffffffffffffffffffff168152602001610bb862ffffff1681526020013073ffffffffffffffffffffffffffffffffffffffff16815260200142815260200184815260200160008152602001600073ffffffffffffffffffffffffffffffffffffffff16815250905060007f000000000000000000000000000000000000000000000000000000000000000073ffffffffffffffffffffffffffffffffffffffff1663414bf389836040518263ffffffff1660e01b8152600401610bd99190611094565b6020604051808303816000875af1158015610bf8573d6000803e3d6000fd5b505050506040513d601f19601f82011682018060405250810190610c1c91906110c5565b905060006127106103e883610c319190610e9a565b610c3b9190610f0b565b90508573ffffffffffffffffffffffffffffffffffffffff166108fc8284610c639190610f3c565b9081150290604051600060405180830381858888f19350505050158015610c8e573d6000803e3d6000fd5b507f66c3a233e2d1f4724bc6f0753c0eea5baef94feefc9b52698e64ed7bb48f962a8660008054906101000a900473ffffffffffffffffffffffffffffffffffffffff1683604051610ce293929190610f70565b60405180910390a17fcafd59f7fc2c5ca06db768647429abaf7d4bbd26d7b7f3b61090fdd8f2e4472686868385610d199190610f3c565b604051610d289392919061124f565b60405180910390a1505050505050565b6103e881565b600073ffffffffffffffffffffffffffffffffffffffff82169050919050565b6000610d6982610d3e565b9050919050565b610d7981610d5e565b82525050565b6000602082019050610d946000830184610d70565b92915050565b6000819050919050565b610dad81610d9a565b82525050565b6000602082019050610dc86000830184610da4565b92915050565b600080fd5b610ddc81610d5e565b8114610de757600080fd5b50565b600081359050610df981610dd3565b92915050565b610e0881610d9a565b8114610e1357600080fd5b50565b600081359050610e2581610dff565b92915050565b60008060408385031215610e4257610e41610dce565b5b6000610e5085828601610dea565b9250506020610e6185828601610e16565b9150509250929050565b7f4e487b7100000000000000000000000000000000000000000000000000000000600052601160045260246000fd5b6000610ea582610d9a565b9150610eb083610d9a565b9250828202610ebe81610d9a565b91508282048414831517610ed557610ed4610e6b565b5b5092915050565b7f4e487b7100000000000000000000000000000000000000000000000000000000600052601260045260246000fd5b6000610f1682610d9a565b9150610f2183610d9a565b925082610f3157610f30610edc565b5b828204905092915050565b6000610f4782610d9a565b9150610f5283610d9a565b9250828203905081811115610f6a57610f69610e6b565b5b92915050565b6000606082019050610f856000830186610d70565b610f926020830185610d70565b610f9f6040830184610da4565b949350505050565b610fb081610d5e565b82525050565b600062ffffff82169050919050565b610fce81610fb6565b82525050565b610fdd81610d9a565b82525050565b610fec81610d3e565b82525050565b610100820160008201516110096000850182610fa7565b50602082015161101c6020850182610fa7565b50604082015161102f6040850182610fc5565b5060608201516110426060850182610fa7565b5060808201516110556080850182610fd4565b5060a082015161106860a0850182610fd4565b5060c082015161107b60c0850182610fd4565b5060e082015161108e60e0850182610fe3565b50505050565b6000610100820190506110aa6000830184610ff2565b92915050565b6000815190506110bf81610dff565b92915050565b6000602082840312156110db576110da610dce565b5b60006110e9848285016110b0565b91505092915050565b60006040820190506111076000830185610d70565b6111146020830184610da4565b9392505050565b60008115159050919050565b6111308161111b565b811461113b57600080fd5b50565b60008151905061114d81611127565b92915050565b60006020828403121561116957611168610dce565b5b60006111778482850161113e565b91505092915050565b6000819050919050565b600061ffff82169050919050565b6000819050919050565b60006111bd6111b86111b384611180565b611198565b61118a565b9050919050565b6111cd816111a2565b82525050565b60006080820190506111e86000830187610d70565b6111f56020830186610da4565b6112026040830185610d70565b61120f60608301846111c4565b95945050505050565b600060608201905061122d6000830186610d70565b61123a6020830185610da4565b6112476040830184610d70565b949350505050565b60006060820190506112646000830186610d70565b6112716020830185610da4565b61127e6040830184610da4565b94935050505056fea26469706673582212200ede5875c199f7146a91723604601a12bbaafc5c0c41ac8a3fb12d03f55e6aa864736f6c63430008120033",
  "linkReferences": {},
  "deployedLinkReferences": {}
}