{
  "_format": "hh-sol-artifact-1",
  "contractName": "ETHVault",
  "sourceName": "contracts/src/Strategies/StrategyLinea/ETHVault.sol",
  "abi": [
    {
      "inputs": [
        {
          "internalType": "contract IERC20",
          "name": "_underlying_asset",
          "type": "address"
        },
        {
          "internalType": "string",
          "name": "name_",
          "type": "string"
        },
        {
          "internalType": "string",
          "name": "symbol_",
          "type": "string"
        }
      ],
      "stateMutability": "nonpayable",
      "type": "constructor"
    },
    {
      "anonymous": false,
      "inputs": [
        {
          "indexed": true,
          "internalType": "address",
          "name": "owner",
          "type": "address"
        },
        {
          "indexed": true,
          "internalType": "address",
          "name": "spender",
          "type": "address"
        },
        {
          "indexed": false,
          "internalType": "uint256",
          "name": "value",
          "type": "uint256"
        }
      ],
      "name": "Approval",
      "type": "event"
    },
    {
      "anonymous": false,
      "inputs": [
        {
          "indexed": true,
          "internalType": "address",
          "name": "sender",
          "type": "address"
        },
        {
          "indexed": true,
          "internalType": "address",
          "name": "owner",
          "type": "address"
        },
        {
          "indexed": false,
          "internalType": "uint256",
          "name": "assets",
          "type": "uint256"
        },
        {
          "indexed": false,
          "internalType": "uint256",
          "name": "shares",
          "type": "uint256"
        }
      ],
      "name": "Deposit",
      "type": "event"
    },
    {
      "anonymous": false,
      "inputs": [
        {
          "indexed": true,
          "internalType": "address",
          "name": "from",
          "type": "address"
        },
        {
          "indexed": true,
          "internalType": "address",
          "name": "to",
          "type": "address"
        },
        {
          "indexed": false,
          "internalType": "uint256",
          "name": "value",
          "type": "uint256"
        }
      ],
      "name": "Transfer",
      "type": "event"
    },
    {
      "anonymous": false,
      "inputs": [
        {
          "indexed": true,
          "internalType": "address",
          "name": "sender",
          "type": "address"
        },
        {
          "indexed": true,
          "internalType": "address",
          "name": "receiver",
          "type": "address"
        },
        {
          "indexed": true,
          "internalType": "address",
          "name": "owner",
          "type": "address"
        },
        {
          "indexed": false,
          "internalType": "uint256",
          "name": "assets",
          "type": "uint256"
        },
        {
          "indexed": false,
          "internalType": "uint256",
          "name": "shares",
          "type": "uint256"
        }
      ],
      "name": "Withdraw",
      "type": "event"
    },
    {
      "inputs": [
        {
          "internalType": "address",
          "name": "owner",
          "type": "address"
        },
        {
          "internalType": "address",
          "name": "spender",
          "type": "address"
        }
      ],
      "name": "allowance",
      "outputs": [
        {
          "internalType": "uint256",
          "name": "",
          "type": "uint256"
        }
      ],
      "stateMutability": "view",
      "type": "function"
    },
    {
      "inputs": [
        {
          "internalType": "address",
          "name": "spender",
          "type": "address"
        },
        {
          "internalType": "uint256",
          "name": "amount",
          "type": "uint256"
        }
      ],
      "name": "approve",
      "outputs": [
        {
          "internalType": "bool",
          "name": "",
          "type": "bool"
        }
      ],
      "stateMutability": "nonpayable",
      "type": "function"
    },
    {
      "inputs": [],
      "name": "asset",
      "outputs": [
        {
          "internalType": "address",
          "name": "",
          "type": "address"
        }
      ],
      "stateMutability": "view",
      "type": "function"
    },
    {
      "inputs": [
        {
          "internalType": "address",
          "name": "account",
          "type": "address"
        }
      ],
      "name": "balanceOf",
      "outputs": [
        {
          "internalType": "uint256",
          "name": "",
          "type": "uint256"
        }
      ],
      "stateMutability": "view",
      "type": "function"
    },
    {
      "inputs": [
        {
          "internalType": "uint256",
          "name": "shares",
          "type": "uint256"
        }
      ],
      "name": "convertToAssets",
      "outputs": [
        {
          "internalType": "uint256",
          "name": "",
          "type": "uint256"
        }
      ],
      "stateMutability": "view",
      "type": "function"
    },
    {
      "inputs": [
        {
          "internalType": "uint256",
          "name": "assets",
          "type": "uint256"
        }
      ],
      "name": "convertToShares",
      "outputs": [
        {
          "internalType": "uint256",
          "name": "",
          "type": "uint256"
        }
      ],
      "stateMutability": "view",
      "type": "function"
    },
    {
      "inputs": [],
      "name": "decimals",
      "outputs": [
        {
          "internalType": "uint8",
          "name": "",
          "type": "uint8"
        }
      ],
      "stateMutability": "view",
      "type": "function"
    },
    {
      "inputs": [
        {
          "internalType": "address",
          "name": "spender",
          "type": "address"
        },
        {
          "internalType": "uint256",
          "name": "subtractedValue",
          "type": "uint256"
        }
      ],
      "name": "decreaseAllowance",
      "outputs": [
        {
          "internalType": "bool",
          "name": "",
          "type": "bool"
        }
      ],
      "stateMutability": "nonpayable",
      "type": "function"
    },
    {
      "inputs": [
        {
          "internalType": "uint256",
          "name": "assets",
          "type": "uint256"
        },
        {
          "internalType": "address",
          "name": "receiver",
          "type": "address"
        }
      ],
      "name": "deposit",
      "outputs": [
        {
          "internalType": "uint256",
          "name": "",
          "type": "uint256"
        }
      ],
      "stateMutability": "nonpayable",
      "type": "function"
    },
    {
      "inputs": [
        {
          "internalType": "address",
          "name": "spender",
          "type": "address"
        },
        {
          "internalType": "uint256",
          "name": "addedValue",
          "type": "uint256"
        }
      ],
      "name": "increaseAllowance",
      "outputs": [
        {
          "internalType": "bool",
          "name": "",
          "type": "bool"
        }
      ],
      "stateMutability": "nonpayable",
      "type": "function"
    },
    {
      "inputs": [
        {
          "internalType": "address",
          "name": "",
          "type": "address"
        }
      ],
      "name": "maxDeposit",
      "outputs": [
        {
          "internalType": "uint256",
          "name": "",
          "type": "uint256"
        }
      ],
      "stateMutability": "view",
      "type": "function"
    },
    {
      "inputs": [
        {
          "internalType": "address",
          "name": "",
          "type": "address"
        }
      ],
      "name": "maxMint",
      "outputs": [
        {
          "internalType": "uint256",
          "name": "",
          "type": "uint256"
        }
      ],
      "stateMutability": "view",
      "type": "function"
    },
    {
      "inputs": [
        {
          "internalType": "address",
          "name": "owner",
          "type": "address"
        }
      ],
      "name": "maxRedeem",
      "outputs": [
        {
          "internalType": "uint256",
          "name": "",
          "type": "uint256"
        }
      ],
      "stateMutability": "view",
      "type": "function"
    },
    {
      "inputs": [
        {
          "internalType": "address",
          "name": "owner",
          "type": "address"
        }
      ],
      "name": "maxWithdraw",
      "outputs": [
        {
          "internalType": "uint256",
          "name": "",
          "type": "uint256"
        }
      ],
      "stateMutability": "view",
      "type": "function"
    },
    {
      "inputs": [
        {
          "internalType": "uint256",
          "name": "shares",
          "type": "uint256"
        },
        {
          "internalType": "address",
          "name": "receiver",
          "type": "address"
        }
      ],
      "name": "mint",
      "outputs": [
        {
          "internalType": "uint256",
          "name": "",
          "type": "uint256"
        }
      ],
      "stateMutability": "nonpayable",
      "type": "function"
    },
    {
      "inputs": [],
      "name": "name",
      "outputs": [
        {
          "internalType": "string",
          "name": "",
          "type": "string"
        }
      ],
      "stateMutability": "view",
      "type": "function"
    },
    {
      "inputs": [
        {
          "internalType": "uint256",
          "name": "assets",
          "type": "uint256"
        }
      ],
      "name": "previewDeposit",
      "outputs": [
        {
          "internalType": "uint256",
          "name": "",
          "type": "uint256"
        }
      ],
      "stateMutability": "view",
      "type": "function"
    },
    {
      "inputs": [
        {
          "internalType": "uint256",
          "name": "shares",
          "type": "uint256"
        }
      ],
      "name": "previewMint",
      "outputs": [
        {
          "internalType": "uint256",
          "name": "",
          "type": "uint256"
        }
      ],
      "stateMutability": "view",
      "type": "function"
    },
    {
      "inputs": [
        {
          "internalType": "uint256",
          "name": "shares",
          "type": "uint256"
        }
      ],
      "name": "previewRedeem",
      "outputs": [
        {
          "internalType": "uint256",
          "name": "",
          "type": "uint256"
        }
      ],
      "stateMutability": "view",
      "type": "function"
    },
    {
      "inputs": [
        {
          "internalType": "uint256",
          "name": "assets",
          "type": "uint256"
        }
      ],
      "name": "previewWithdraw",
      "outputs": [
        {
          "internalType": "uint256",
          "name": "",
          "type": "uint256"
        }
      ],
      "stateMutability": "view",
      "type": "function"
    },
    {
      "inputs": [
        {
          "internalType": "uint256",
          "name": "shares",
          "type": "uint256"
        },
        {
          "internalType": "address",
          "name": "receiver",
          "type": "address"
        },
        {
          "internalType": "address",
          "name": "owner",
          "type": "address"
        }
      ],
      "name": "redeem",
      "outputs": [
        {
          "internalType": "uint256",
          "name": "",
          "type": "uint256"
        }
      ],
      "stateMutability": "nonpayable",
      "type": "function"
    },
    {
      "inputs": [],
      "name": "symbol",
      "outputs": [
        {
          "internalType": "string",
          "name": "",
          "type": "string"
        }
      ],
      "stateMutability": "view",
      "type": "function"
    },
    {
      "inputs": [],
      "name": "totalAssets",
      "outputs": [
        {
          "internalType": "uint256",
          "name": "",
          "type": "uint256"
        }
      ],
      "stateMutability": "view",
      "type": "function"
    },
    {
      "inputs": [],
      "name": "totalSupply",
      "outputs": [
        {
          "internalType": "uint256",
          "name": "",
          "type": "uint256"
        }
      ],
      "stateMutability": "view",
      "type": "function"
    },
    {
      "inputs": [
        {
          "internalType": "address",
          "name": "to",
          "type": "address"
        },
        {
          "internalType": "uint256",
          "name": "amount",
          "type": "uint256"
        }
      ],
      "name": "transfer",
      "outputs": [
        {
          "internalType": "bool",
          "name": "",
          "type": "bool"
        }
      ],
      "stateMutability": "nonpayable",
      "type": "function"
    },
    {
      "inputs": [
        {
          "internalType": "address",
          "name": "from",
          "type": "address"
        },
        {
          "internalType": "address",
          "name": "to",
          "type": "address"
        },
        {
          "internalType": "uint256",
          "name": "amount",
          "type": "uint256"
        }
      ],
      "name": "transferFrom",
      "outputs": [
        {
          "internalType": "bool",
          "name": "",
          "type": "bool"
        }
      ],
      "stateMutability": "nonpayable",
      "type": "function"
    },
    {
      "inputs": [
        {
          "internalType": "uint256",
          "name": "assets",
          "type": "uint256"
        },
        {
          "internalType": "address",
          "name": "receiver",
          "type": "address"
        },
        {
          "internalType": "address",
          "name": "owner",
          "type": "address"
        }
      ],
      "name": "withdraw",
      "outputs": [
        {
          "internalType": "uint256",
          "name": "",
          "type": "uint256"
        }
      ],
      "stateMutability": "nonpayable",
      "type": "function"
    }
  ],
  "bytecode": "0x60c06040523480156200001157600080fd5b50604051620035bf380380620035bf83398181016040528101906200003791906200054d565b826040518060400160405280600681526020017f655661756c7400000000000000000000000000000000000000000000000000008152506040518060400160405280600381526020017f65565400000000000000000000000000000000000000000000000000000000008152508160039080519060200190620000bc92919062000287565b508060049080519060200190620000d592919062000287565b505050600080620000ec836200014d60201b60201c565b9150915081620000fe57601262000100565b805b60ff1660a08160ff16815250508273ffffffffffffffffffffffffffffffffffffffff1660808173ffffffffffffffffffffffffffffffffffffffff16815250505050505050506200071e565b6000806000808473ffffffffffffffffffffffffffffffffffffffff1663313ce56760e01b604051602401604051602081830303815290604052907bffffffffffffffffffffffffffffffffffffffffffffffffffffffff19166020820180517bffffffffffffffffffffffffffffffffffffffffffffffffffffffff8381831617835250505050604051620001e4919062000634565b600060405180830381855afa9150503d806000811462000221576040519150601f19603f3d011682016040523d82523d6000602084013e62000226565b606091505b50915091508180156200023b57506020815110155b15620002785760008180602001905181019062000259919062000688565b905060ff8016811162000276576001819450945050505062000282565b505b6000809350935050505b915091565b8280546200029590620006e9565b90600052602060002090601f016020900481019282620002b9576000855562000305565b82601f10620002d457805160ff191683800117855562000305565b8280016001018555821562000305579182015b8281111562000304578251825591602001919060010190620002e7565b5b50905062000314919062000318565b5090565b5b808211156200033357600081600090555060010162000319565b5090565b6000604051905090565b600080fd5b600080fd5b600073ffffffffffffffffffffffffffffffffffffffff82169050919050565b600062000378826200034b565b9050919050565b60006200038c826200036b565b9050919050565b6200039e816200037f565b8114620003aa57600080fd5b50565b600081519050620003be8162000393565b92915050565b600080fd5b600080fd5b6000601f19601f8301169050919050565b7f4e487b7100000000000000000000000000000000000000000000000000000000600052604160045260246000fd5b6200041982620003ce565b810181811067ffffffffffffffff821117156200043b576200043a620003df565b5b80604052505050565b60006200045062000337565b90506200045e82826200040e565b919050565b600067ffffffffffffffff821115620004815762000480620003df565b5b6200048c82620003ce565b9050602081019050919050565b60005b83811015620004b95780820151818401526020810190506200049c565b83811115620004c9576000848401525b50505050565b6000620004e6620004e08462000463565b62000444565b905082815260208101848484011115620005055762000504620003c9565b5b6200051284828562000499565b509392505050565b600082601f830112620005325762000531620003c4565b5b815162000544848260208601620004cf565b91505092915050565b60008060006060848603121562000569576200056862000341565b5b60006200057986828701620003ad565b935050602084015167ffffffffffffffff8111156200059d576200059c62000346565b5b620005ab868287016200051a565b925050604084015167ffffffffffffffff811115620005cf57620005ce62000346565b5b620005dd868287016200051a565b9150509250925092565b600081519050919050565b600081905092915050565b60006200060a82620005e7565b620006168185620005f2565b93506200062881856020860162000499565b80840191505092915050565b6000620006428284620005fd565b915081905092915050565b6000819050919050565b62000662816200064d565b81146200066e57600080fd5b50565b600081519050620006828162000657565b92915050565b600060208284031215620006a157620006a062000341565b5b6000620006b18482850162000671565b91505092915050565b7f4e487b7100000000000000000000000000000000000000000000000000000000600052602260045260246000fd5b600060028204905060018216806200070257607f821691505b602082108103620007185762000717620006ba565b5b50919050565b60805160a051612e6662000759600039600061081501526000818161065601528181610847015281816112de01526113ca0152612e666000f3fe608060405234801561001057600080fd5b50600436106101a95760003560e01c806370a08231116100f9578063ba08765211610097578063ce96cb7711610071578063ce96cb7714610592578063d905777e146105c2578063dd62ed3e146105f2578063ef8b30f714610622576101a9565b8063ba08765214610502578063c63d75b614610532578063c6e6f59214610562576101a9565b8063a457c2d7116100d3578063a457c2d714610442578063a9059cbb14610472578063b3d7f6b9146104a2578063b460af94146104d2576101a9565b806370a08231146103c457806394bf804d146103f457806395d89b4114610424576101a9565b806323b872dd1161016657806339509351116101405780633950935114610304578063402d267d146103345780634cdad506146103645780636e553f6514610394576101a9565b806323b872dd14610298578063313ce567146102c857806338d52e0f146102e6576101a9565b806301e1d114146101ae57806306fdde03146101cc57806307a2d13a146101ea578063095ea7b31461021a5780630a28a4771461024a57806318160ddd1461027a575b600080fd5b6101b6610652565b6040516101c39190611ce6565b60405180910390f35b6101d46106f3565b6040516101e19190611d9a565b60405180910390f35b61020460048036038101906101ff9190611ded565b610785565b6040516102119190611ce6565b60405180910390f35b610234600480360381019061022f9190611e78565b610799565b6040516102419190611ed3565b60405180910390f35b610264600480360381019061025f9190611ded565b6107bc565b6040516102719190611ce6565b60405180910390f35b6102826107d0565b60405161028f9190611ce6565b60405180910390f35b6102b260048036038101906102ad9190611eee565b6107da565b6040516102bf9190611ed3565b60405180910390f35b6102d0610809565b6040516102dd9190611f5d565b60405180910390f35b6102ee610843565b6040516102fb9190611f87565b60405180910390f35b61031e60048036038101906103199190611e78565b61086b565b60405161032b9190611ed3565b60405180910390f35b61034e60048036038101906103499190611fa2565b6108a2565b60405161035b9190611ce6565b60405180910390f35b61037e60048036038101906103799190611ded565b6108cc565b60405161038b9190611ce6565b60405180910390f35b6103ae60048036038101906103a99190611fcf565b6108e0565b6040516103bb9190611ce6565b60405180910390f35b6103de60048036038101906103d99190611fa2565b610957565b6040516103eb9190611ce6565b60405180910390f35b61040e60048036038101906104099190611fcf565b61099f565b60405161041b9190611ce6565b60405180910390f35b61042c610a16565b6040516104399190611d9a565b60405180910390f35b61045c60048036038101906104579190611e78565b610aa8565b6040516104699190611ed3565b60405180910390f35b61048c60048036038101906104879190611e78565b610b1f565b6040516104999190611ed3565b60405180910390f35b6104bc60048036038101906104b79190611ded565b610b42565b6040516104c99190611ce6565b60405180910390f35b6104ec60048036038101906104e7919061200f565b610b56565b6040516104f99190611ce6565b60405180910390f35b61051c6004803603810190610517919061200f565b610bcf565b6040516105299190611ce6565b60405180910390f35b61054c60048036038101906105479190611fa2565b610c48565b6040516105599190611ce6565b60405180910390f35b61057c60048036038101906105779190611ded565b610c72565b6040516105899190611ce6565b60405180910390f35b6105ac60048036038101906105a79190611fa2565b610c86565b6040516105b99190611ce6565b60405180910390f35b6105dc60048036038101906105d79190611fa2565b610ca2565b6040516105e99190611ce6565b60405180910390f35b61060c60048036038101906106079190612062565b610cb4565b6040516106199190611ce6565b60405180910390f35b61063c60048036038101906106379190611ded565b610d3b565b6040516106499190611ce6565b60405180910390f35b60007f000000000000000000000000000000000000000000000000000000000000000073ffffffffffffffffffffffffffffffffffffffff166370a08231306040518263ffffffff1660e01b81526004016106ad9190611f87565b602060405180830381865afa1580156106ca573d6000803e3d6000fd5b505050506040513d601f19601f820116820180604052508101906106ee91906120b7565b905090565b60606003805461070290612113565b80601f016020809104026020016040519081016040528092919081815260200182805461072e90612113565b801561077b5780601f106107505761010080835404028352916020019161077b565b820191906000526020600020905b81548152906001019060200180831161075e57829003601f168201915b5050505050905090565b6000610792826000610d4f565b9050919050565b6000806107a4610da8565b90506107b1818585610db0565b600191505092915050565b60006107c9826001610f79565b9050919050565b6000600254905090565b6000806107e5610da8565b90506107f2858285610fd2565b6107fd85858561105e565b60019150509392505050565b60006108136112d4565b7f000000000000000000000000000000000000000000000000000000000000000061083e9190612173565b905090565b60007f0000000000000000000000000000000000000000000000000000000000000000905090565b600080610876610da8565b90506108978185856108888589610cb4565b61089291906121aa565b610db0565b600191505092915050565b60007fffffffffffffffffffffffffffffffffffffffffffffffffffffffffffffffff9050919050565b60006108d9826000610d4f565b9050919050565b60006108eb826108a2565b83111561092d576040517f08c379a00000000000000000000000000000000000000000000000000000000081526004016109249061224c565b60405180910390fd5b600061093884610d3b565b905061094d610945610da8565b8486846112d9565b8091505092915050565b60008060008373ffffffffffffffffffffffffffffffffffffffff1673ffffffffffffffffffffffffffffffffffffffff168152602001908152602001600020549050919050565b60006109aa82610c48565b8311156109ec576040517f08c379a00000000000000000000000000000000000000000000000000000000081526004016109e3906122b8565b60405180910390fd5b60006109f784610b42565b9050610a0c610a04610da8565b8483876112d9565b8091505092915050565b606060048054610a2590612113565b80601f0160208091040260200160405190810160405280929190818152602001828054610a5190612113565b8015610a9e5780601f10610a7357610100808354040283529160200191610a9e565b820191906000526020600020905b815481529060010190602001808311610a8157829003601f168201915b5050505050905090565b600080610ab3610da8565b90506000610ac18286610cb4565b905083811015610b06576040517f08c379a0000000000000000000000000000000000000000000000000000000008152600401610afd9061234a565b60405180910390fd5b610b138286868403610db0565b60019250505092915050565b600080610b2a610da8565b9050610b3781858561105e565b600191505092915050565b6000610b4f826001610d4f565b9050919050565b6000610b6182610c86565b841115610ba3576040517f08c379a0000000000000000000000000000000000000000000000000000000008152600401610b9a906123b6565b60405180910390fd5b6000610bae856107bc565b9050610bc4610bbb610da8565b8585888561137c565b809150509392505050565b6000610bda82610ca2565b841115610c1c576040517f08c379a0000000000000000000000000000000000000000000000000000000008152600401610c1390612422565b60405180910390fd5b6000610c27856108cc565b9050610c3d610c34610da8565b8585848961137c565b809150509392505050565b60007fffffffffffffffffffffffffffffffffffffffffffffffffffffffffffffffff9050919050565b6000610c7f826000610f79565b9050919050565b6000610c9b610c9483610957565b6000610d4f565b9050919050565b6000610cad82610957565b9050919050565b6000600160008473ffffffffffffffffffffffffffffffffffffffff1673ffffffffffffffffffffffffffffffffffffffff16815260200190815260200160002060008373ffffffffffffffffffffffffffffffffffffffff1673ffffffffffffffffffffffffffffffffffffffff16815260200190815260200160002054905092915050565b6000610d48826000610f79565b9050919050565b6000610da06001610d5e610652565b610d6891906121aa565b610d706112d4565b600a610d7c9190612575565b610d846107d0565b610d8e91906121aa565b8486611475909392919063ffffffff16565b905092915050565b600033905090565b600073ffffffffffffffffffffffffffffffffffffffff168373ffffffffffffffffffffffffffffffffffffffff1603610e1f576040517f08c379a0000000000000000000000000000000000000000000000000000000008152600401610e1690612632565b60405180910390fd5b600073ffffffffffffffffffffffffffffffffffffffff168273ffffffffffffffffffffffffffffffffffffffff1603610e8e576040517f08c379a0000000000000000000000000000000000000000000000000000000008152600401610e85906126c4565b60405180910390fd5b80600160008573ffffffffffffffffffffffffffffffffffffffff1673ffffffffffffffffffffffffffffffffffffffff16815260200190815260200160002060008473ffffffffffffffffffffffffffffffffffffffff1673ffffffffffffffffffffffffffffffffffffffff168152602001908152602001600020819055508173ffffffffffffffffffffffffffffffffffffffff168373ffffffffffffffffffffffffffffffffffffffff167f8c5be1e5ebec7d5bd14f71427d1e84f3dd0314c0f7b2291e5b200ac8c7c3b92583604051610f6c9190611ce6565b60405180910390a3505050565b6000610fca610f866112d4565b600a610f929190612575565b610f9a6107d0565b610fa491906121aa565b6001610fae610652565b610fb891906121aa565b8486611475909392919063ffffffff16565b905092915050565b6000610fde8484610cb4565b90507fffffffffffffffffffffffffffffffffffffffffffffffffffffffffffffffff8114611058578181101561104a576040517f08c379a000000000000000000000000000000000000000000000000000000000815260040161104190612730565b60405180910390fd5b6110578484848403610db0565b5b50505050565b600073ffffffffffffffffffffffffffffffffffffffff168373ffffffffffffffffffffffffffffffffffffffff16036110cd576040517f08c379a00000000000000000000000000000000000000000000000000000000081526004016110c4906127c2565b60405180910390fd5b600073ffffffffffffffffffffffffffffffffffffffff168273ffffffffffffffffffffffffffffffffffffffff160361113c576040517f08c379a000000000000000000000000000000000000000000000000000000000815260040161113390612854565b60405180910390fd5b6111478383836114eb565b60008060008573ffffffffffffffffffffffffffffffffffffffff1673ffffffffffffffffffffffffffffffffffffffff168152602001908152602001600020549050818110156111cd576040517f08c379a00000000000000000000000000000000000000000000000000000000081526004016111c4906128e6565b60405180910390fd5b8181036000808673ffffffffffffffffffffffffffffffffffffffff1673ffffffffffffffffffffffffffffffffffffffff16815260200190815260200160002081905550816000808573ffffffffffffffffffffffffffffffffffffffff1673ffffffffffffffffffffffffffffffffffffffff168152602001908152602001600020600082825401925050819055508273ffffffffffffffffffffffffffffffffffffffff168473ffffffffffffffffffffffffffffffffffffffff167fddf252ad1be2c89b69c2b068fc378daa952ba7f163c4a11628f55a4df523b3ef846040516112bb9190611ce6565b60405180910390a36112ce8484846114f0565b50505050565b600090565b6113057f00000000000000000000000000000000000000000000000000000000000000008530856114f5565b61130f838261157e565b8273ffffffffffffffffffffffffffffffffffffffff168473ffffffffffffffffffffffffffffffffffffffff167fdcbc1c05240f31ff3ad067ef1ee35ce4997762752e3a095284754544f4c709d7848460405161136e929190612906565b60405180910390a350505050565b8273ffffffffffffffffffffffffffffffffffffffff168573ffffffffffffffffffffffffffffffffffffffff16146113bb576113ba838683610fd2565b5b6113c583826116d4565b6113f07f000000000000000000000000000000000000000000000000000000000000000085846118a1565b8273ffffffffffffffffffffffffffffffffffffffff168473ffffffffffffffffffffffffffffffffffffffff168673ffffffffffffffffffffffffffffffffffffffff167ffbde797d201c681b91056529119e0b02407c7bb96a4a2c75c01fc9667232c8db8585604051611466929190612906565b60405180910390a45050505050565b600080611483868686611927565b9050600160028111156114995761149861292f565b5b8360028111156114ac576114ab61292f565b5b1480156114ca5750600084806114c5576114c461295e565b5b868809115b156114df576001816114dc91906121aa565b90505b80915050949350505050565b505050565b505050565b611578846323b872dd60e01b8585856040516024016115169392919061298d565b604051602081830303815290604052907bffffffffffffffffffffffffffffffffffffffffffffffffffffffff19166020820180517bffffffffffffffffffffffffffffffffffffffffffffffffffffffff8381831617835250505050611a38565b50505050565b600073ffffffffffffffffffffffffffffffffffffffff168273ffffffffffffffffffffffffffffffffffffffff16036115ed576040517f08c379a00000000000000000000000000000000000000000000000000000000081526004016115e490612a10565b60405180910390fd5b6115f9600083836114eb565b806002600082825461160b91906121aa565b92505081905550806000808473ffffffffffffffffffffffffffffffffffffffff1673ffffffffffffffffffffffffffffffffffffffff168152602001908152602001600020600082825401925050819055508173ffffffffffffffffffffffffffffffffffffffff16600073ffffffffffffffffffffffffffffffffffffffff167fddf252ad1be2c89b69c2b068fc378daa952ba7f163c4a11628f55a4df523b3ef836040516116bc9190611ce6565b60405180910390a36116d0600083836114f0565b5050565b600073ffffffffffffffffffffffffffffffffffffffff168273ffffffffffffffffffffffffffffffffffffffff1603611743576040517f08c379a000000000000000000000000000000000000000000000000000000000815260040161173a90612aa2565b60405180910390fd5b61174f826000836114eb565b60008060008473ffffffffffffffffffffffffffffffffffffffff1673ffffffffffffffffffffffffffffffffffffffff168152602001908152602001600020549050818110156117d5576040517f08c379a00000000000000000000000000000000000000000000000000000000081526004016117cc90612b34565b60405180910390fd5b8181036000808573ffffffffffffffffffffffffffffffffffffffff1673ffffffffffffffffffffffffffffffffffffffff1681526020019081526020016000208190555081600260008282540392505081905550600073ffffffffffffffffffffffffffffffffffffffff168373ffffffffffffffffffffffffffffffffffffffff167fddf252ad1be2c89b69c2b068fc378daa952ba7f163c4a11628f55a4df523b3ef846040516118889190611ce6565b60405180910390a361189c836000846114f0565b505050565b6119228363a9059cbb60e01b84846040516024016118c0929190612b54565b604051602081830303815290604052907bffffffffffffffffffffffffffffffffffffffffffffffffffffffff19166020820180517bffffffffffffffffffffffffffffffffffffffffffffffffffffffff8381831617835250505050611a38565b505050565b6000806000801985870985870292508281108382030391505060008103611962578382816119585761195761295e565b5b0492505050611a31565b8084116119a4576040517f08c379a000000000000000000000000000000000000000000000000000000000815260040161199b90612bc9565b60405180910390fd5b60008486880990508281118203915080830392506000600186190186169050808604955080840493506001818260000304019050808302841793506000600287600302189050808702600203810290508087026002038102905080870260020381029050808702600203810290508087026002038102905080870260020381029050808502955050505050505b9392505050565b6000611a9a826040518060400160405280602081526020017f5361666545524332303a206c6f772d6c6576656c2063616c6c206661696c65648152508573ffffffffffffffffffffffffffffffffffffffff16611b009092919063ffffffff16565b9050600081511480611abc575080806020019051810190611abb9190612c15565b5b611afb576040517f08c379a0000000000000000000000000000000000000000000000000000000008152600401611af290612cb4565b60405180910390fd5b505050565b6060611b0f8484600085611b18565b90509392505050565b606082471015611b5d576040517f08c379a0000000000000000000000000000000000000000000000000000000008152600401611b5490612d46565b60405180910390fd5b6000808673ffffffffffffffffffffffffffffffffffffffff168587604051611b869190612dad565b60006040518083038185875af1925050503d8060008114611bc3576040519150601f19603f3d011682016040523d82523d6000602084013e611bc8565b606091505b5091509150611bd987838387611be5565b92505050949350505050565b60608315611c47576000835103611c3f57611bff85611c5a565b611c3e576040517f08c379a0000000000000000000000000000000000000000000000000000000008152600401611c3590612e10565b60405180910390fd5b5b829050611c52565b611c518383611c7d565b5b949350505050565b6000808273ffffffffffffffffffffffffffffffffffffffff163b119050919050565b600082511115611c905781518083602001fd5b806040517f08c379a0000000000000000000000000000000000000000000000000000000008152600401611cc49190611d9a565b60405180910390fd5b6000819050919050565b611ce081611ccd565b82525050565b6000602082019050611cfb6000830184611cd7565b92915050565b600081519050919050565b600082825260208201905092915050565b60005b83811015611d3b578082015181840152602081019050611d20565b83811115611d4a576000848401525b50505050565b6000601f19601f8301169050919050565b6000611d6c82611d01565b611d768185611d0c565b9350611d86818560208601611d1d565b611d8f81611d50565b840191505092915050565b60006020820190508181036000830152611db48184611d61565b905092915050565b600080fd5b611dca81611ccd565b8114611dd557600080fd5b50565b600081359050611de781611dc1565b92915050565b600060208284031215611e0357611e02611dbc565b5b6000611e1184828501611dd8565b91505092915050565b600073ffffffffffffffffffffffffffffffffffffffff82169050919050565b6000611e4582611e1a565b9050919050565b611e5581611e3a565b8114611e6057600080fd5b50565b600081359050611e7281611e4c565b92915050565b60008060408385031215611e8f57611e8e611dbc565b5b6000611e9d85828601611e63565b9250506020611eae85828601611dd8565b9150509250929050565b60008115159050919050565b611ecd81611eb8565b82525050565b6000602082019050611ee86000830184611ec4565b92915050565b600080600060608486031215611f0757611f06611dbc565b5b6000611f1586828701611e63565b9350506020611f2686828701611e63565b9250506040611f3786828701611dd8565b9150509250925092565b600060ff82169050919050565b611f5781611f41565b82525050565b6000602082019050611f726000830184611f4e565b92915050565b611f8181611e3a565b82525050565b6000602082019050611f9c6000830184611f78565b92915050565b600060208284031215611fb857611fb7611dbc565b5b6000611fc684828501611e63565b91505092915050565b60008060408385031215611fe657611fe5611dbc565b5b6000611ff485828601611dd8565b925050602061200585828601611e63565b9150509250929050565b60008060006060848603121561202857612027611dbc565b5b600061203686828701611dd8565b935050602061204786828701611e63565b925050604061205886828701611e63565b9150509250925092565b6000806040838503121561207957612078611dbc565b5b600061208785828601611e63565b925050602061209885828601611e63565b9150509250929050565b6000815190506120b181611dc1565b92915050565b6000602082840312156120cd576120cc611dbc565b5b60006120db848285016120a2565b91505092915050565b7f4e487b7100000000000000000000000000000000000000000000000000000000600052602260045260246000fd5b6000600282049050600182168061212b57607f821691505b60208210810361213e5761213d6120e4565b5b50919050565b7f4e487b7100000000000000000000000000000000000000000000000000000000600052601160045260246000fd5b600061217e82611f41565b915061218983611f41565b92508260ff0382111561219f5761219e612144565b5b828201905092915050565b60006121b582611ccd565b91506121c083611ccd565b9250827fffffffffffffffffffffffffffffffffffffffffffffffffffffffffffffffff038211156121f5576121f4612144565b5b828201905092915050565b7f455243343632363a206465706f736974206d6f7265207468616e206d61780000600082015250565b6000612236601e83611d0c565b915061224182612200565b602082019050919050565b6000602082019050818103600083015261226581612229565b9050919050565b7f455243343632363a206d696e74206d6f7265207468616e206d61780000000000600082015250565b60006122a2601b83611d0c565b91506122ad8261226c565b602082019050919050565b600060208201905081810360008301526122d181612295565b9050919050565b7f45524332303a2064656372656173656420616c6c6f77616e63652062656c6f7760008201527f207a65726f000000000000000000000000000000000000000000000000000000602082015250565b6000612334602583611d0c565b915061233f826122d8565b604082019050919050565b6000602082019050818103600083015261236381612327565b9050919050565b7f455243343632363a207769746864726177206d6f7265207468616e206d617800600082015250565b60006123a0601f83611d0c565b91506123ab8261236a565b602082019050919050565b600060208201905081810360008301526123cf81612393565b9050919050565b7f455243343632363a2072656465656d206d6f7265207468616e206d6178000000600082015250565b600061240c601d83611d0c565b9150612417826123d6565b602082019050919050565b6000602082019050818103600083015261243b816123ff565b9050919050565b60008160011c9050919050565b6000808291508390505b60018511156124995780860481111561247557612474612144565b5b60018516156124845780820291505b808102905061249285612442565b9450612459565b94509492505050565b6000826124b2576001905061256e565b816124c0576000905061256e565b81600181146124d657600281146124e05761250f565b600191505061256e565b60ff8411156124f2576124f1612144565b5b8360020a91508482111561250957612508612144565b5b5061256e565b5060208310610133831016604e8410600b84101617156125445782820a90508381111561253f5761253e612144565b5b61256e565b612551848484600161244f565b9250905081840481111561256857612567612144565b5b81810290505b9392505050565b600061258082611ccd565b915061258b83611f41565b92506125b87fffffffffffffffffffffffffffffffffffffffffffffffffffffffffffffffff84846124a2565b905092915050565b7f45524332303a20617070726f76652066726f6d20746865207a65726f2061646460008201527f7265737300000000000000000000000000000000000000000000000000000000602082015250565b600061261c602483611d0c565b9150612627826125c0565b604082019050919050565b6000602082019050818103600083015261264b8161260f565b9050919050565b7f45524332303a20617070726f766520746f20746865207a65726f20616464726560008201527f7373000000000000000000000000000000000000000000000000000000000000602082015250565b60006126ae602283611d0c565b91506126b982612652565b604082019050919050565b600060208201905081810360008301526126dd816126a1565b9050919050565b7f45524332303a20696e73756666696369656e7420616c6c6f77616e6365000000600082015250565b600061271a601d83611d0c565b9150612725826126e4565b602082019050919050565b600060208201905081810360008301526127498161270d565b9050919050565b7f45524332303a207472616e736665722066726f6d20746865207a65726f20616460008201527f6472657373000000000000000000000000000000000000000000000000000000602082015250565b60006127ac602583611d0c565b91506127b782612750565b604082019050919050565b600060208201905081810360008301526127db8161279f565b9050919050565b7f45524332303a207472616e7366657220746f20746865207a65726f206164647260008201527f6573730000000000000000000000000000000000000000000000000000000000602082015250565b600061283e602383611d0c565b9150612849826127e2565b604082019050919050565b6000602082019050818103600083015261286d81612831565b9050919050565b7f45524332303a207472616e7366657220616d6f756e742065786365656473206260008201527f616c616e63650000000000000000000000000000000000000000000000000000602082015250565b60006128d0602683611d0c565b91506128db82612874565b604082019050919050565b600060208201905081810360008301526128ff816128c3565b9050919050565b600060408201905061291b6000830185611cd7565b6129286020830184611cd7565b9392505050565b7f4e487b7100000000000000000000000000000000000000000000000000000000600052602160045260246000fd5b7f4e487b7100000000000000000000000000000000000000000000000000000000600052601260045260246000fd5b60006060820190506129a26000830186611f78565b6129af6020830185611f78565b6129bc6040830184611cd7565b949350505050565b7f45524332303a206d696e7420746f20746865207a65726f206164647265737300600082015250565b60006129fa601f83611d0c565b9150612a05826129c4565b602082019050919050565b60006020820190508181036000830152612a29816129ed565b9050919050565b7f45524332303a206275726e2066726f6d20746865207a65726f2061646472657360008201527f7300000000000000000000000000000000000000000000000000000000000000602082015250565b6000612a8c602183611d0c565b9150612a9782612a30565b604082019050919050565b60006020820190508181036000830152612abb81612a7f565b9050919050565b7f45524332303a206275726e20616d6f756e7420657863656564732062616c616e60008201527f6365000000000000000000000000000000000000000000000000000000000000602082015250565b6000612b1e602283611d0c565b9150612b2982612ac2565b604082019050919050565b60006020820190508181036000830152612b4d81612b11565b9050919050565b6000604082019050612b696000830185611f78565b612b766020830184611cd7565b9392505050565b7f4d6174683a206d756c446976206f766572666c6f770000000000000000000000600082015250565b6000612bb3601583611d0c565b9150612bbe82612b7d565b602082019050919050565b60006020820190508181036000830152612be281612ba6565b9050919050565b612bf281611eb8565b8114612bfd57600080fd5b50565b600081519050612c0f81612be9565b92915050565b600060208284031215612c2b57612c2a611dbc565b5b6000612c3984828501612c00565b91505092915050565b7f5361666545524332303a204552433230206f7065726174696f6e20646964206e60008201527f6f74207375636365656400000000000000000000000000000000000000000000602082015250565b6000612c9e602a83611d0c565b9150612ca982612c42565b604082019050919050565b60006020820190508181036000830152612ccd81612c91565b9050919050565b7f416464726573733a20696e73756666696369656e742062616c616e636520666f60008201527f722063616c6c0000000000000000000000000000000000000000000000000000602082015250565b6000612d30602683611d0c565b9150612d3b82612cd4565b604082019050919050565b60006020820190508181036000830152612d5f81612d23565b9050919050565b600081519050919050565b600081905092915050565b6000612d8782612d66565b612d918185612d71565b9350612da1818560208601611d1d565b80840191505092915050565b6000612db98284612d7c565b915081905092915050565b7f416464726573733a2063616c6c20746f206e6f6e2d636f6e7472616374000000600082015250565b6000612dfa601d83611d0c565b9150612e0582612dc4565b602082019050919050565b60006020820190508181036000830152612e2981612ded565b905091905056fea26469706673582212203463c1630153acafc0e54bd3df4224988ac6daa04415883123355f4e6c2a86e164736f6c634300080e0033",
  "linkReferences": {},
  "deployedLinkReferences": {}
}