{
  "_format": "hh-sol-artifact-1",
  "contractName": "StrategyManager",
  "sourceName": "contracts/src/StrategyManager.sol",
  "abi": [
    {
      "inputs": [],
      "stateMutability": "nonpayable",
      "type": "constructor"
    },
    {
      "inputs": [
        {
          "internalType": "uint256",
          "name": "_nonce",
          "type": "uint256"
        }
      ],
      "name": "divest",
      "outputs": [],
      "stateMutability": "payable",
      "type": "function"
    },
    {
      "inputs": [
        {
          "internalType": "uint256",
          "name": "amount",
          "type": "uint256"
        },
        {
          "internalType": "address",
          "name": "strategy",
          "type": "address"
        }
      ],
      "name": "invest",
      "outputs": [],
      "stateMutability": "payable",
      "type": "function"
    },
    {
      "inputs": [
        {
          "internalType": "address",
          "name": "strategy",
          "type": "address"
        }
      ],
      "name": "isStrategyWhitelisted",
      "outputs": [
        {
          "internalType": "bool",
          "name": "",
          "type": "bool"
        }
      ],
      "stateMutability": "view",
      "type": "function"
    },
    {
      "inputs": [
        {
          "internalType": "address",
          "name": "strategy",
          "type": "address"
        },
        {
          "internalType": "address",
          "name": "strategist",
          "type": "address"
        }
      ],
      "name": "queueWhiteListStrategy",
      "outputs": [],
      "stateMutability": "nonpayable",
      "type": "function"
    },
    {
      "inputs": [
        {
          "internalType": "address",
          "name": "strategy",
          "type": "address"
        }
      ],
      "name": "whiteListStrategy",
      "outputs": [],
      "stateMutability": "nonpayable",
      "type": "function"
    }
  ],
  "bytecode": "0x608060405234801561001057600080fd5b50336000806101000a81548173ffffffffffffffffffffffffffffffffffffffff021916908373ffffffffffffffffffffffffffffffffffffffff160217905550610c83806100606000396000f3fe60806040526004361061004a5760003560e01c80633d103b971461004f5780638ca179951461006b578063999ba27c14610087578063b5aacfea146100c4578063ecd09983146100ed575b600080fd5b6100696004803603810190610064919061088d565b610116565b005b610085600480360381019061008091906108cd565b6103b7565b005b34801561009357600080fd5b506100ae60048036038101906100a991906108fa565b6104e5565b6040516100bb9190610942565b60405180910390f35b3480156100d057600080fd5b506100eb60048036038101906100e6919061095d565b610531565b005b3480156100f957600080fd5b50610114600480360381019061010f91906108fa565b61059e565b005b61011f816104e5565b61015e576040517f08c379a0000000000000000000000000000000000000000000000000000000008152600401610155906109fa565b60405180910390fd5b6007600081548092919061017190610a49565b9190505550600060405180608001604052803373ffffffffffffffffffffffffffffffffffffffff1681526020018373ffffffffffffffffffffffffffffffffffffffff168152602001848152602001600160028111156101d5576101d4610a91565b5b81525090508060086000600754815260200190815260200160002060008201518160000160006101000a81548173ffffffffffffffffffffffffffffffffffffffff021916908373ffffffffffffffffffffffffffffffffffffffff16021790555060208201518160010160006101000a81548173ffffffffffffffffffffffffffffffffffffffff021916908373ffffffffffffffffffffffffffffffffffffffff1602179055506040820151816002015560608201518160030160006101000a81548160ff021916908360028111156102b3576102b2610a91565b5b021790555090505060003403610335578173ffffffffffffffffffffffffffffffffffffffff1663b9b8c24633856040518363ffffffff1660e01b81526004016102fe929190610ade565b600060405180830381600087803b15801561031857600080fd5b505af115801561032c573d6000803e3d6000fd5b505050506103b2565b6000831461034257600080fd5b8173ffffffffffffffffffffffffffffffffffffffff1663b9b8c246343360006040518463ffffffff1660e01b815260040161037f929190610b4c565b6000604051808303818588803b15801561039857600080fd5b505af11580156103ac573d6000803e3d6000fd5b50505050505b505050565b60075481106103c557600080fd5b60006103d082610742565b90506002808111156103e5576103e4610a91565b5b8160030160009054906101000a900460ff16600281111561040957610408610a91565b5b1461041357600080fd5b60008160010160009054906101000a900473ffffffffffffffffffffffffffffffffffffffff16905060008260020154905060028360030160006101000a81548160ff0219169083600281111561046d5761046c610a91565b5b02179055508173ffffffffffffffffffffffffffffffffffffffff1663bb50431733836040518363ffffffff1660e01b81526004016104ad929190610ade565b600060405180830381600087803b1580156104c757600080fd5b505af11580156104db573d6000803e3d6000fd5b5050505050505050565b60006001600460008473ffffffffffffffffffffffffffffffffffffffff1673ffffffffffffffffffffffffffffffffffffffff16815260200190815260200160002054149050919050565b61053a8261075e565b15801561054c575061054b816107a9565b5b61055557600080fd5b6001600360008473ffffffffffffffffffffffffffffffffffffffff1673ffffffffffffffffffffffffffffffffffffffff168152602001908152602001600020819055505050565b60008054906101000a900473ffffffffffffffffffffffffffffffffffffffff1673ffffffffffffffffffffffffffffffffffffffff163373ffffffffffffffffffffffffffffffffffffffff16146105f657600080fd5b6001600360008373ffffffffffffffffffffffffffffffffffffffff1673ffffffffffffffffffffffffffffffffffffffff1681526020019081526020016000205414610678576040517f08c379a000000000000000000000000000000000000000000000000000000000815260040161066f90610bc1565b60405180910390fd5b6000600460008373ffffffffffffffffffffffffffffffffffffffff1673ffffffffffffffffffffffffffffffffffffffff16815260200190815260200160002054146106fa576040517f08c379a00000000000000000000000000000000000000000000000000000000081526004016106f190610c2d565b60405180910390fd5b6001600460008373ffffffffffffffffffffffffffffffffffffffff1673ffffffffffffffffffffffffffffffffffffffff1681526020019081526020016000208190555050565b6000600860008381526020019081526020016000209050919050565b600060018060008473ffffffffffffffffffffffffffffffffffffffff1673ffffffffffffffffffffffffffffffffffffffff16815260200190815260200160002054149050919050565b600060018060008473ffffffffffffffffffffffffffffffffffffffff1673ffffffffffffffffffffffffffffffffffffffff16815260200190815260200160002054149050919050565b600080fd5b6000819050919050565b61080c816107f9565b811461081757600080fd5b50565b60008135905061082981610803565b92915050565b600073ffffffffffffffffffffffffffffffffffffffff82169050919050565b600061085a8261082f565b9050919050565b61086a8161084f565b811461087557600080fd5b50565b60008135905061088781610861565b92915050565b600080604083850312156108a4576108a36107f4565b5b60006108b28582860161081a565b92505060206108c385828601610878565b9150509250929050565b6000602082840312156108e3576108e26107f4565b5b60006108f18482850161081a565b91505092915050565b6000602082840312156109105761090f6107f4565b5b600061091e84828501610878565b91505092915050565b60008115159050919050565b61093c81610927565b82525050565b60006020820190506109576000830184610933565b92915050565b60008060408385031215610974576109736107f4565b5b600061098285828601610878565b925050602061099385828601610878565b9150509250929050565b600082825260208201905092915050565b7f5374726174656779206e6f742077686974656c69737465640000000000000000600082015250565b60006109e460188361099d565b91506109ef826109ae565b602082019050919050565b60006020820190508181036000830152610a13816109d7565b9050919050565b7f4e487b7100000000000000000000000000000000000000000000000000000000600052601160045260246000fd5b6000610a54826107f9565b91507fffffffffffffffffffffffffffffffffffffffffffffffffffffffffffffffff8203610a8657610a85610a1a565b5b600182019050919050565b7f4e487b7100000000000000000000000000000000000000000000000000000000600052602160045260246000fd5b610ac98161084f565b82525050565b610ad8816107f9565b82525050565b6000604082019050610af36000830185610ac0565b610b006020830184610acf565b9392505050565b6000819050919050565b6000819050919050565b6000610b36610b31610b2c84610b07565b610b11565b6107f9565b9050919050565b610b4681610b1b565b82525050565b6000604082019050610b616000830185610ac0565b610b6e6020830184610b3d565b9392505050565b7f4e6f7420696e2077686974656c69737420717565756500000000000000000000600082015250565b6000610bab60168361099d565b9150610bb682610b75565b602082019050919050565b60006020820190508181036000830152610bda81610b9e565b9050919050565b7f416c72656164792077686974656c697374656400000000000000000000000000600082015250565b6000610c1760138361099d565b9150610c2282610be1565b602082019050919050565b60006020820190508181036000830152610c4681610c0a565b905091905056fea2646970667358221220656507a4cddbc3abcbe74ea7e2c16a292bdb2a3d4a5aaf5bbd2bb75924bb351464736f6c63430008120033",
  "linkReferences": {},
  "deployedLinkReferences": {}
}