{
  "_format": "hh-sol-artifact-1",
  "contractName": "StrategyManager",
  "sourceName": "contracts/src/StrategyManager.sol",
  "abi": [
    {
      "inputs": [],
      "stateMutability": "nonpayable",
      "type": "constructor"
    },
    {
      "inputs": [
        {
          "internalType": "uint256",
          "name": "_nonce",
          "type": "uint256"
        }
      ],
      "name": "divest",
      "outputs": [],
      "stateMutability": "payable",
      "type": "function"
    },
    {
      "inputs": [
        {
          "internalType": "uint256",
          "name": "amount",
          "type": "uint256"
        },
        {
          "internalType": "address",
          "name": "strategy",
          "type": "address"
        }
      ],
      "name": "invest",
      "outputs": [],
      "stateMutability": "payable",
      "type": "function"
    },
    {
      "inputs": [
        {
          "internalType": "address",
          "name": "strategy",
          "type": "address"
        }
      ],
      "name": "isStrategyWhitelisted",
      "outputs": [
        {
          "internalType": "bool",
          "name": "",
          "type": "bool"
        }
      ],
      "stateMutability": "view",
      "type": "function"
    },
    {
      "inputs": [
        {
          "internalType": "address",
          "name": "strategy",
          "type": "address"
        },
        {
          "internalType": "address",
          "name": "strategist",
          "type": "address"
        }
      ],
      "name": "queueWhiteListStrategy",
      "outputs": [],
      "stateMutability": "nonpayable",
      "type": "function"
    },
    {
      "inputs": [
        {
          "internalType": "address",
          "name": "strategist",
          "type": "address"
        }
      ],
      "name": "whiteListStrategist",
      "outputs": [],
      "stateMutability": "nonpayable",
      "type": "function"
    },
    {
      "inputs": [
        {
          "internalType": "address",
          "name": "strategy",
          "type": "address"
        }
      ],
      "name": "whiteListStrategy",
      "outputs": [],
      "stateMutability": "nonpayable",
      "type": "function"
    }
  ],
  "bytecode": "0x608060405234801561001057600080fd5b50336000806101000a81548173ffffffffffffffffffffffffffffffffffffffff021916908373ffffffffffffffffffffffffffffffffffffffff160217905550610d58806100606000396000f3fe6080604052600436106100555760003560e01c80633d103b971461005a5780638ca1799514610076578063999ba27c14610092578063b5aacfea146100cf578063ecd09983146100f8578063faf93ae814610121575b600080fd5b610074600480360381019061006f9190610962565b61014a565b005b610090600480360381019061008b91906109a2565b6103eb565b005b34801561009e57600080fd5b506100b960048036038101906100b491906109cf565b610519565b6040516100c69190610a17565b60405180910390f35b3480156100db57600080fd5b506100f660048036038101906100f19190610a32565b610565565b005b34801561010457600080fd5b5061011f600480360381019061011a91906109cf565b6105d2565b005b34801561012d57600080fd5b50610148600480360381019061014391906109cf565b610776565b005b61015381610519565b610192576040517f08c379a000000000000000000000000000000000000000000000000000000000815260040161018990610acf565b60405180910390fd5b600760008154809291906101a590610b1e565b9190505550600060405180608001604052803373ffffffffffffffffffffffffffffffffffffffff1681526020018373ffffffffffffffffffffffffffffffffffffffff1681526020018481526020016001600281111561020957610208610b66565b5b81525090508060086000600754815260200190815260200160002060008201518160000160006101000a81548173ffffffffffffffffffffffffffffffffffffffff021916908373ffffffffffffffffffffffffffffffffffffffff16021790555060208201518160010160006101000a81548173ffffffffffffffffffffffffffffffffffffffff021916908373ffffffffffffffffffffffffffffffffffffffff1602179055506040820151816002015560608201518160030160006101000a81548160ff021916908360028111156102e7576102e6610b66565b5b021790555090505060003403610369578173ffffffffffffffffffffffffffffffffffffffff1663b9b8c24633856040518363ffffffff1660e01b8152600401610332929190610bb3565b600060405180830381600087803b15801561034c57600080fd5b505af1158015610360573d6000803e3d6000fd5b505050506103e6565b6000831461037657600080fd5b8173ffffffffffffffffffffffffffffffffffffffff1663b9b8c246343360006040518463ffffffff1660e01b81526004016103b3929190610c21565b6000604051808303818588803b1580156103cc57600080fd5b505af11580156103e0573d6000803e3d6000fd5b50505050505b505050565b60075481106103f957600080fd5b600061040482610816565b905060028081111561041957610418610b66565b5b8160030160009054906101000a900460ff16600281111561043d5761043c610b66565b5b1461044757600080fd5b60008160010160009054906101000a900473ffffffffffffffffffffffffffffffffffffffff16905060008260020154905060028360030160006101000a81548160ff021916908360028111156104a1576104a0610b66565b5b02179055508173ffffffffffffffffffffffffffffffffffffffff1663bb50431733836040518363ffffffff1660e01b81526004016104e1929190610bb3565b600060405180830381600087803b1580156104fb57600080fd5b505af115801561050f573d6000803e3d6000fd5b5050505050505050565b60006001600460008473ffffffffffffffffffffffffffffffffffffffff1673ffffffffffffffffffffffffffffffffffffffff16815260200190815260200160002054149050919050565b61056e82610832565b158015610580575061057f8161087d565b5b61058957600080fd5b6001600360008473ffffffffffffffffffffffffffffffffffffffff1673ffffffffffffffffffffffffffffffffffffffff168152602001908152602001600020819055505050565b60008054906101000a900473ffffffffffffffffffffffffffffffffffffffff1673ffffffffffffffffffffffffffffffffffffffff163373ffffffffffffffffffffffffffffffffffffffff161461062a57600080fd5b6001600360008373ffffffffffffffffffffffffffffffffffffffff1673ffffffffffffffffffffffffffffffffffffffff16815260200190815260200160002054146106ac576040517f08c379a00000000000000000000000000000000000000000000000000000000081526004016106a390610c96565b60405180910390fd5b6000600460008373ffffffffffffffffffffffffffffffffffffffff1673ffffffffffffffffffffffffffffffffffffffff168152602001908152602001600020541461072e576040517f08c379a000000000000000000000000000000000000000000000000000000000815260040161072590610d02565b60405180910390fd5b6001600460008373ffffffffffffffffffffffffffffffffffffffff1673ffffffffffffffffffffffffffffffffffffffff1681526020019081526020016000208190555050565b60008054906101000a900473ffffffffffffffffffffffffffffffffffffffff1673ffffffffffffffffffffffffffffffffffffffff163373ffffffffffffffffffffffffffffffffffffffff16146107ce57600080fd5b6001600260008373ffffffffffffffffffffffffffffffffffffffff1673ffffffffffffffffffffffffffffffffffffffff1681526020019081526020016000208190555050565b6000600860008381526020019081526020016000209050919050565b600060018060008473ffffffffffffffffffffffffffffffffffffffff1673ffffffffffffffffffffffffffffffffffffffff16815260200190815260200160002054149050919050565b60006001600260008473ffffffffffffffffffffffffffffffffffffffff1673ffffffffffffffffffffffffffffffffffffffff16815260200190815260200160002054149050919050565b600080fd5b6000819050919050565b6108e1816108ce565b81146108ec57600080fd5b50565b6000813590506108fe816108d8565b92915050565b600073ffffffffffffffffffffffffffffffffffffffff82169050919050565b600061092f82610904565b9050919050565b61093f81610924565b811461094a57600080fd5b50565b60008135905061095c81610936565b92915050565b60008060408385031215610979576109786108c9565b5b6000610987858286016108ef565b92505060206109988582860161094d565b9150509250929050565b6000602082840312156109b8576109b76108c9565b5b60006109c6848285016108ef565b91505092915050565b6000602082840312156109e5576109e46108c9565b5b60006109f38482850161094d565b91505092915050565b60008115159050919050565b610a11816109fc565b82525050565b6000602082019050610a2c6000830184610a08565b92915050565b60008060408385031215610a4957610a486108c9565b5b6000610a578582860161094d565b9250506020610a688582860161094d565b9150509250929050565b600082825260208201905092915050565b7f5374726174656779206e6f742077686974656c69737465640000000000000000600082015250565b6000610ab9601883610a72565b9150610ac482610a83565b602082019050919050565b60006020820190508181036000830152610ae881610aac565b9050919050565b7f4e487b7100000000000000000000000000000000000000000000000000000000600052601160045260246000fd5b6000610b29826108ce565b91507fffffffffffffffffffffffffffffffffffffffffffffffffffffffffffffffff8203610b5b57610b5a610aef565b5b600182019050919050565b7f4e487b7100000000000000000000000000000000000000000000000000000000600052602160045260246000fd5b610b9e81610924565b82525050565b610bad816108ce565b82525050565b6000604082019050610bc86000830185610b95565b610bd56020830184610ba4565b9392505050565b6000819050919050565b6000819050919050565b6000610c0b610c06610c0184610bdc565b610be6565b6108ce565b9050919050565b610c1b81610bf0565b82525050565b6000604082019050610c366000830185610b95565b610c436020830184610c12565b9392505050565b7f4e6f7420696e2077686974656c69737420717565756500000000000000000000600082015250565b6000610c80601683610a72565b9150610c8b82610c4a565b602082019050919050565b60006020820190508181036000830152610caf81610c73565b9050919050565b7f416c72656164792077686974656c697374656400000000000000000000000000600082015250565b6000610cec601383610a72565b9150610cf782610cb6565b602082019050919050565b60006020820190508181036000830152610d1b81610cdf565b905091905056fea264697066735822122074abcf8016e71f42ba3854fc54cef48c573c2591ff3d2eed00d2b864c709d0c464736f6c63430008120033",
  "linkReferences": {},
  "deployedLinkReferences": {}
}