{
  "_format": "hh-sol-artifact-1",
  "contractName": "Strategy",
  "sourceName": "contracts/src/Strategies/Strategy1/Strategy.sol",
  "abi": [
    {
      "inputs": [
        {
          "internalType": "address",
          "name": "_WETH",
          "type": "address"
        },
        {
          "internalType": "address",
          "name": "_WBTC",
          "type": "address"
        },
        {
          "internalType": "address",
          "name": "_UniswapRouter",
          "type": "address"
        },
        {
          "internalType": "address",
          "name": "_AaveLendingPool",
          "type": "address"
        },
        {
          "internalType": "address",
          "name": "_strategyManager",
          "type": "address"
        }
      ],
      "stateMutability": "nonpayable",
      "type": "constructor"
    },
    {
      "anonymous": false,
      "inputs": [
        {
          "indexed": false,
          "internalType": "address",
          "name": "user",
          "type": "address"
        },
        {
          "indexed": false,
          "internalType": "uint256",
          "name": "invested_amount",
          "type": "uint256"
        },
        {
          "indexed": false,
          "internalType": "uint256",
          "name": "received_amount",
          "type": "uint256"
        }
      ],
      "name": "Divest",
      "type": "event"
    },
    {
      "anonymous": false,
      "inputs": [
        {
          "indexed": false,
          "internalType": "address",
          "name": "user",
          "type": "address"
        },
        {
          "indexed": false,
          "internalType": "address",
          "name": "strategist",
          "type": "address"
        },
        {
          "indexed": false,
          "internalType": "uint256",
          "name": "fee_amount",
          "type": "uint256"
        }
      ],
      "name": "FeeDeduction",
      "type": "event"
    },
    {
      "anonymous": false,
      "inputs": [
        {
          "indexed": true,
          "internalType": "address",
          "name": "user",
          "type": "address"
        },
        {
          "indexed": false,
          "internalType": "uint256",
          "name": "amount",
          "type": "uint256"
        }
      ],
      "name": "Invest",
      "type": "event"
    },
    {
      "inputs": [],
      "name": "AaveLendingPool",
      "outputs": [
        {
          "internalType": "address",
          "name": "",
          "type": "address"
        }
      ],
      "stateMutability": "view",
      "type": "function"
    },
    {
      "inputs": [],
      "name": "UniswapV2Router",
      "outputs": [
        {
          "internalType": "address",
          "name": "",
          "type": "address"
        }
      ],
      "stateMutability": "view",
      "type": "function"
    },
    {
      "inputs": [],
      "name": "WBTC",
      "outputs": [
        {
          "internalType": "address",
          "name": "",
          "type": "address"
        }
      ],
      "stateMutability": "view",
      "type": "function"
    },
    {
      "inputs": [],
      "name": "WETH",
      "outputs": [
        {
          "internalType": "address",
          "name": "",
          "type": "address"
        }
      ],
      "stateMutability": "view",
      "type": "function"
    },
    {
      "inputs": [
        {
          "internalType": "address",
          "name": "user",
          "type": "address"
        },
        {
          "internalType": "uint256",
          "name": "amount",
          "type": "uint256"
        }
      ],
      "name": "divest",
      "outputs": [],
      "stateMutability": "payable",
      "type": "function"
    },
    {
      "inputs": [],
      "name": "getRoyalty",
      "outputs": [
        {
          "internalType": "uint256",
          "name": "",
          "type": "uint256"
        }
      ],
      "stateMutability": "pure",
      "type": "function"
    },
    {
      "inputs": [
        {
          "internalType": "address",
          "name": "user",
          "type": "address"
        },
        {
          "internalType": "uint256",
          "name": "amt",
          "type": "uint256"
        }
      ],
      "name": "invest",
      "outputs": [],
      "stateMutability": "payable",
      "type": "function"
    },
    {
      "inputs": [],
      "name": "strategist",
      "outputs": [
        {
          "internalType": "address",
          "name": "",
          "type": "address"
        }
      ],
      "stateMutability": "view",
      "type": "function"
    },
    {
      "inputs": [],
      "name": "strategyManager",
      "outputs": [
        {
          "internalType": "address",
          "name": "",
          "type": "address"
        }
      ],
      "stateMutability": "view",
      "type": "function"
    },
    {
      "stateMutability": "payable",
      "type": "receive"
    }
  ],
  "bytecode": "0x6101206040526103e86080908152503480156200001b57600080fd5b50604051620017bd380380620017bd8339818101604052810190620000419190620001c8565b8473ffffffffffffffffffffffffffffffffffffffff1660a08173ffffffffffffffffffffffffffffffffffffffff16815250508373ffffffffffffffffffffffffffffffffffffffff1660c08173ffffffffffffffffffffffffffffffffffffffff16815250508273ffffffffffffffffffffffffffffffffffffffff1660e08173ffffffffffffffffffffffffffffffffffffffff16815250508173ffffffffffffffffffffffffffffffffffffffff166101008173ffffffffffffffffffffffffffffffffffffffff168152505080600160006101000a81548173ffffffffffffffffffffffffffffffffffffffff021916908373ffffffffffffffffffffffffffffffffffffffff160217905550505050505062000250565b600080fd5b600073ffffffffffffffffffffffffffffffffffffffff82169050919050565b6000620001908262000163565b9050919050565b620001a28162000183565b8114620001ae57600080fd5b50565b600081519050620001c28162000197565b92915050565b600080600080600060a08688031215620001e757620001e66200015e565b5b6000620001f788828901620001b1565b95505060206200020a88828901620001b1565b94505060406200021d88828901620001b1565b93505060606200023088828901620001b1565b92505060806200024388828901620001b1565b9150509295509295909350565b60805160a05160c05160e051610100516114bf620002fe60003960008181610299015281816105c60152818161066401526107fe0152600081816101fd015281816104d2015281816108fc0152610a61015260008181610275015281816104610152818161058a015281816106a00152818161083a015281816108c001526109810152600081816102bd015281816103f201526109f001526000818161034d0152610b1f01526114bf6000f3fe60806040526004361061008a5760003560e01c80634dede3de116100595780634dede3de1461014257806392f6da0a1461016d578063ad5c464814610198578063b9b8c246146101c3578063bb504317146101df57610091565b8063055add0d146100965780631fe4a686146100c157806339b70e38146100ec5780634d47732a1461011757610091565b3661009157005b600080fd5b3480156100a257600080fd5b506100ab6101fb565b6040516100b89190610ce2565b60405180910390f35b3480156100cd57600080fd5b506100d661021f565b6040516100e39190610ce2565b60405180910390f35b3480156100f857600080fd5b50610101610243565b60405161010e9190610ce2565b60405180910390f35b34801561012357600080fd5b5061012c610269565b6040516101399190610d16565b60405180910390f35b34801561014e57600080fd5b50610157610273565b6040516101649190610ce2565b60405180910390f35b34801561017957600080fd5b50610182610297565b60405161018f9190610ce2565b60405180910390f35b3480156101a457600080fd5b506101ad6102bb565b6040516101ba9190610ce2565b60405180910390f35b6101dd60048036038101906101d89190610d9d565b6102df565b005b6101f960048036038101906101f49190610d9d565b6107a0565b005b7f000000000000000000000000000000000000000000000000000000000000000081565b60008054906101000a900473ffffffffffffffffffffffffffffffffffffffff1681565b600160009054906101000a900473ffffffffffffffffffffffffffffffffffffffff1681565b60006103e8905090565b7f000000000000000000000000000000000000000000000000000000000000000081565b7f000000000000000000000000000000000000000000000000000000000000000081565b7f000000000000000000000000000000000000000000000000000000000000000081565b600160009054906101000a900473ffffffffffffffffffffffffffffffffffffffff1673ffffffffffffffffffffffffffffffffffffffff163373ffffffffffffffffffffffffffffffffffffffff161461033957600080fd5b6000811461034657600080fd5b60006127107f0000000000000000000000000000000000000000000000000000000000000000346103779190610e0c565b6103819190610e7d565b9050600081346103919190610eae565b90507f66c3a233e2d1f4724bc6f0753c0eea5baef94feefc9b52698e64ed7bb48f962a8460008054906101000a900473ffffffffffffffffffffffffffffffffffffffff16846040516103e693929190610ee2565b60405180910390a160607f00000000000000000000000000000000000000000000000000000000000000008160008151811061042557610424610f19565b5b602002602001019073ffffffffffffffffffffffffffffffffffffffff16908173ffffffffffffffffffffffffffffffffffffffff16815250507f00000000000000000000000000000000000000000000000000000000000000008160018151811061049457610493610f19565b5b602002602001019073ffffffffffffffffffffffffffffffffffffffff16908173ffffffffffffffffffffffffffffffffffffffff168152505060007f000000000000000000000000000000000000000000000000000000000000000073ffffffffffffffffffffffffffffffffffffffff16637ff36ab584600085306109604261051f9190610f48565b6040518663ffffffff1660e01b815260040161053e949392919061107f565b60006040518083038185885af115801561055c573d6000803e3d6000fd5b50505050506040513d6000823e3d601f19601f820116820180604052508101906105869190611239565b90507f000000000000000000000000000000000000000000000000000000000000000073ffffffffffffffffffffffffffffffffffffffff1663095ea7b37f0000000000000000000000000000000000000000000000000000000000000000836001815181106105f9576105f8610f19565b5b60200260200101516040518363ffffffff1660e01b815260040161061e929190611282565b6020604051808303816000875af115801561063d573d6000803e3d6000fd5b505050506040513d601f19601f8201168201806040525081019061066191906112e3565b507f000000000000000000000000000000000000000000000000000000000000000073ffffffffffffffffffffffffffffffffffffffff1663e8eda9df7f0000000000000000000000000000000000000000000000000000000000000000836001815181106106d3576106d2610f19565b5b60200260200101518960006040518563ffffffff1660e01b81526004016106fd949392919061134f565b600060405180830381600087803b15801561071757600080fd5b505af115801561072b573d6000803e3d6000fd5b505050508573ffffffffffffffffffffffffffffffffffffffff167fd90d253a9de34d2fdd5a75ae49ea17fcb43af32fc8ea08cc6d2341991dd3872e8260018151811061077b5761077a610f19565b5b60200260200101516040516107909190610d16565b60405180910390a2505050505050565b600160009054906101000a900473ffffffffffffffffffffffffffffffffffffffff1673ffffffffffffffffffffffffffffffffffffffff163373ffffffffffffffffffffffffffffffffffffffff16146107fa57600080fd5b60007f000000000000000000000000000000000000000000000000000000000000000073ffffffffffffffffffffffffffffffffffffffff166369328dec7f000000000000000000000000000000000000000000000000000000000000000084306040518463ffffffff1660e01b815260040161087993929190611394565b6020604051808303816000875af1158015610898573d6000803e3d6000fd5b505050506040513d601f19601f820116820180604052508101906108bc91906113cb565b90507f000000000000000000000000000000000000000000000000000000000000000073ffffffffffffffffffffffffffffffffffffffff1663095ea7b37f0000000000000000000000000000000000000000000000000000000000000000836040518363ffffffff1660e01b8152600401610939929190611282565b6020604051808303816000875af1158015610958573d6000803e3d6000fd5b505050506040513d601f19601f8201168201806040525081019061097c91906112e3565b5060607f0000000000000000000000000000000000000000000000000000000000000000816000815181106109b4576109b3610f19565b5b602002602001019073ffffffffffffffffffffffffffffffffffffffff16908173ffffffffffffffffffffffffffffffffffffffff16815250507f000000000000000000000000000000000000000000000000000000000000000081600181518110610a2357610a22610f19565b5b602002602001019073ffffffffffffffffffffffffffffffffffffffff16908173ffffffffffffffffffffffffffffffffffffffff168152505060007f000000000000000000000000000000000000000000000000000000000000000073ffffffffffffffffffffffffffffffffffffffff166318cbafe5846000853061096042610aae9190610f48565b6040518663ffffffff1660e01b8152600401610ace9594939291906113f8565b6000604051808303816000875af1158015610aed573d6000803e3d6000fd5b505050506040513d6000823e3d601f19601f82011682018060405250810190610b169190611239565b905060006127107f000000000000000000000000000000000000000000000000000000000000000083600181518110610b5257610b51610f19565b5b6020026020010151610b649190610e0c565b610b6e9190610e7d565b90508573ffffffffffffffffffffffffffffffffffffffff166108fc8284600181518110610b9f57610b9e610f19565b5b6020026020010151610bb19190610eae565b9081150290604051600060405180830381858888f19350505050158015610bdc573d6000803e3d6000fd5b507f66c3a233e2d1f4724bc6f0753c0eea5baef94feefc9b52698e64ed7bb48f962a8660008054906101000a900473ffffffffffffffffffffffffffffffffffffffff1683604051610c3093929190610ee2565b60405180910390a17fcafd59f7fc2c5ca06db768647429abaf7d4bbd26d7b7f3b61090fdd8f2e4472686868385600181518110610c7057610c6f610f19565b5b6020026020010151610c829190610eae565b604051610c9193929190611452565b60405180910390a1505050505050565b600073ffffffffffffffffffffffffffffffffffffffff82169050919050565b6000610ccc82610ca1565b9050919050565b610cdc81610cc1565b82525050565b6000602082019050610cf76000830184610cd3565b92915050565b6000819050919050565b610d1081610cfd565b82525050565b6000602082019050610d2b6000830184610d07565b92915050565b6000604051905090565b600080fd5b600080fd5b610d4e81610cc1565b8114610d5957600080fd5b50565b600081359050610d6b81610d45565b92915050565b610d7a81610cfd565b8114610d8557600080fd5b50565b600081359050610d9781610d71565b92915050565b60008060408385031215610db457610db3610d3b565b5b6000610dc285828601610d5c565b9250506020610dd385828601610d88565b9150509250929050565b7f4e487b7100000000000000000000000000000000000000000000000000000000600052601160045260246000fd5b6000610e1782610cfd565b9150610e2283610cfd565b9250828202610e3081610cfd565b91508282048414831517610e4757610e46610ddd565b5b5092915050565b7f4e487b7100000000000000000000000000000000000000000000000000000000600052601260045260246000fd5b6000610e8882610cfd565b9150610e9383610cfd565b925082610ea357610ea2610e4e565b5b828204905092915050565b6000610eb982610cfd565b9150610ec483610cfd565b9250828203905081811115610edc57610edb610ddd565b5b92915050565b6000606082019050610ef76000830186610cd3565b610f046020830185610cd3565b610f116040830184610d07565b949350505050565b7f4e487b7100000000000000000000000000000000000000000000000000000000600052603260045260246000fd5b6000610f5382610cfd565b9150610f5e83610cfd565b9250828201905080821115610f7657610f75610ddd565b5b92915050565b6000819050919050565b6000819050919050565b6000610fab610fa6610fa184610f7c565b610f86565b610cfd565b9050919050565b610fbb81610f90565b82525050565b600081519050919050565b600082825260208201905092915050565b6000819050602082019050919050565b610ff681610cc1565b82525050565b60006110088383610fed565b60208301905092915050565b6000602082019050919050565b600061102c82610fc1565b6110368185610fcc565b935061104183610fdd565b8060005b838110156110725781516110598882610ffc565b975061106483611014565b925050600181019050611045565b5085935050505092915050565b60006080820190506110946000830187610fb2565b81810360208301526110a68186611021565b90506110b56040830185610cd3565b6110c26060830184610d07565b95945050505050565b600080fd5b6000601f19601f8301169050919050565b7f4e487b7100000000000000000000000000000000000000000000000000000000600052604160045260246000fd5b611119826110d0565b810181811067ffffffffffffffff82111715611138576111376110e1565b5b80604052505050565b600061114b610d31565b90506111578282611110565b919050565b600067ffffffffffffffff821115611177576111766110e1565b5b602082029050602081019050919050565b600080fd5b60008151905061119c81610d71565b92915050565b60006111b56111b08461115c565b611141565b905080838252602082019050602084028301858111156111d8576111d7611188565b5b835b8181101561120157806111ed888261118d565b8452602084019350506020810190506111da565b5050509392505050565b600082601f8301126112205761121f6110cb565b5b81516112308482602086016111a2565b91505092915050565b60006020828403121561124f5761124e610d3b565b5b600082015167ffffffffffffffff81111561126d5761126c610d40565b5b6112798482850161120b565b91505092915050565b60006040820190506112976000830185610cd3565b6112a46020830184610d07565b9392505050565b60008115159050919050565b6112c0816112ab565b81146112cb57600080fd5b50565b6000815190506112dd816112b7565b92915050565b6000602082840312156112f9576112f8610d3b565b5b6000611307848285016112ce565b91505092915050565b600061ffff82169050919050565b600061133961133461132f84610f7c565b610f86565b611310565b9050919050565b6113498161131e565b82525050565b60006080820190506113646000830187610cd3565b6113716020830186610d07565b61137e6040830185610cd3565b61138b6060830184611340565b95945050505050565b60006060820190506113a96000830186610cd3565b6113b66020830185610d07565b6113c36040830184610cd3565b949350505050565b6000602082840312156113e1576113e0610d3b565b5b60006113ef8482850161118d565b91505092915050565b600060a08201905061140d6000830188610d07565b61141a6020830187610fb2565b818103604083015261142c8186611021565b905061143b6060830185610cd3565b6114486080830184610d07565b9695505050505050565b60006060820190506114676000830186610cd3565b6114746020830185610d07565b6114816040830184610d07565b94935050505056fea2646970667358221220b95e533bf4430e8bf6d37fafe090f6f4f131ce91c5bfe16667b662d1e7a0af0664736f6c63430008120033",
  "linkReferences": {},
  "deployedLinkReferences": {}
}