{"abi":[{"type":"constructor","inputs":[{"name":"_owner","type":"address","internalType":"address"}],"stateMutability":"nonpayable"},{"type":"function","name":"divest","inputs":[{"name":"_nonce","type":"uint256","internalType":"uint256"}],"outputs":[],"stateMutability":"payable"},{"type":"function","name":"invest","inputs":[{"name":"amount","type":"uint256","internalType":"uint256"},{"name":"strategy","type":"address","internalType":"address"}],"outputs":[],"stateMutability":"payable"},{"type":"function","name":"isStrategyWhitelisted","inputs":[{"name":"strategy","type":"address","internalType":"address"}],"outputs":[{"name":"","type":"bool","internalType":"bool"}],"stateMutability":"view"},{"type":"function","name":"queueWhiteListStrategy","inputs":[{"name":"strategy","type":"address","internalType":"address"},{"name":"strategist","type":"address","internalType":"address"}],"outputs":[],"stateMutability":"nonpayable"},{"type":"function","name":"whiteListStrategy","inputs":[{"name":"strategy","type":"address","internalType":"address"}],"outputs":[],"stateMutability":"nonpayable"}],"bytecode":{"object":"0x608060405234801561001057600080fd5b506040516106c03803806106c083398101604081905261002f91610054565b600080546001600160a01b0319166001600160a01b0392909216919091179055610084565b60006020828403121561006657600080fd5b81516001600160a01b038116811461007d57600080fd5b9392505050565b61062d806100936000396000f3fe60806040526004361061004a5760003560e01c80633d103b971461004f5780638ca1799514610064578063999ba27c14610077578063b5aacfea146100c4578063ecd09983146100e4575b600080fd5b61006261005d366004610529565b610104565b005b610062610072366004610555565b61030b565b34801561008357600080fd5b506100b061009236600461056e565b6001600160a01b031660009081526004602052604090205460011490565b604051901515815260200160405180910390f35b3480156100d057600080fd5b506100626100df366004610590565b6103b2565b3480156100f057600080fd5b506100626100ff36600461056e565b61041c565b6001600160a01b0381166000908152600460205260409020546001146101715760405162461bcd60e51b815260206004820152601860248201527f5374726174656779206e6f742077686974656c6973746564000000000000000060448201526064015b60405180910390fd5b60078054906000610181836105ba565b9091555050604080516080810182523381526001600160a01b0383811660208084019182528385018781526001606086018181526007546000908152600890945296909220855181546001600160a01b03199081169187169190911782559351818401805490951695169490941790925590516002808401919091559351600383018054949586959293919260ff191691908490811115610224576102246105e1565b02179055509050503460000361029957604051635cdc612360e11b8152336004820152602481018490526001600160a01b0383169063b9b8c24690604401600060405180830381600087803b15801561027c57600080fd5b505af1158015610290573d6000803e3d6000fd5b50505050505050565b82156102a457600080fd5b604051635cdc612360e11b8152336004820152600060248201526001600160a01b0383169063b9b8c2469034906044016000604051808303818588803b1580156102ed57600080fd5b505af1158015610301573d6000803e3d6000fd5b5050505050505050565b600754811061031957600080fd5b6000818152600860205260409020600381015460029060ff1681811115610342576103426105e1565b1461034c57600080fd5b600181015460028083015460038401805460ff191690921790915560405163bb50431760e01b8152336004820152602481018290526001600160a01b0390921691829063bb50431790604401600060405180830381600087803b1580156102ed57600080fd5b6001600160a01b038216600090815260016020819052604090912054141580156103f557506001600160a01b038116600090815260016020819052604090912054145b6103fe57600080fd5b506001600160a01b0316600090815260036020526040902060019055565b6000546001600160a01b0316331461043357600080fd5b6001600160a01b0381166000908152600360205260409020546001146104945760405162461bcd60e51b81526020600482015260166024820152754e6f7420696e2077686974656c69737420717565756560501b6044820152606401610168565b6001600160a01b038116600090815260046020526040902054156104f05760405162461bcd60e51b8152602060048201526013602482015272105b1c9958591e481dda1a5d195b1a5cdd1959606a1b6044820152606401610168565b6001600160a01b0316600090815260046020526040902060019055565b80356001600160a01b038116811461052457600080fd5b919050565b6000806040838503121561053c57600080fd5b8235915061054c6020840161050d565b90509250929050565b60006020828403121561056757600080fd5b5035919050565b60006020828403121561058057600080fd5b6105898261050d565b9392505050565b600080604083850312156105a357600080fd5b6105ac8361050d565b915061054c6020840161050d565b6000600182016105da57634e487b7160e01b600052601160045260246000fd5b5060010190565b634e487b7160e01b600052602160045260246000fdfea2646970667358221220624342381604235a02ea2035ae787ae1a0f8f6380a0a42eb7a7b1997d33118a864736f6c63430008150033","linkReferences":{}},"methodIdentifiers":{"divest(uint256)":"8ca17995","invest(uint256,address)":"3d103b97","isStrategyWhitelisted(address)":"999ba27c","queueWhiteListStrategy(address,address)":"b5aacfea","whiteListStrategy(address)":"ecd09983"},"id":3}