{"abi":[{"type":"constructor","inputs":[{"name":"_WETH","type":"address","internalType":"address"},{"name":"_WBTC","type":"address","internalType":"address"},{"name":"_UniswapRouter","type":"address","internalType":"address"},{"name":"_AaveLendingPool","type":"address","internalType":"address"},{"name":"_strategyManager","type":"address","internalType":"address"}],"stateMutability":"nonpayable"},{"type":"receive","stateMutability":"payable"},{"type":"function","name":"AaveLendingPool","inputs":[],"outputs":[{"name":"","type":"address","internalType":"address"}],"stateMutability":"view"},{"type":"function","name":"UniswapV2Router","inputs":[],"outputs":[{"name":"","type":"address","internalType":"address"}],"stateMutability":"view"},{"type":"function","name":"WBTC","inputs":[],"outputs":[{"name":"","type":"address","internalType":"address"}],"stateMutability":"view"},{"type":"function","name":"WETH","inputs":[],"outputs":[{"name":"","type":"address","internalType":"address"}],"stateMutability":"view"},{"type":"function","name":"divest","inputs":[{"name":"user","type":"address","internalType":"address"},{"name":"amount","type":"uint256","internalType":"uint256"}],"outputs":[],"stateMutability":"payable"},{"type":"function","name":"getRoyalty","inputs":[],"outputs":[{"name":"","type":"uint256","internalType":"uint256"}],"stateMutability":"pure"},{"type":"function","name":"invest","inputs":[{"name":"user","type":"address","internalType":"address"},{"name":"amt","type":"uint256","internalType":"uint256"}],"outputs":[],"stateMutability":"payable"},{"type":"function","name":"strategist","inputs":[],"outputs":[{"name":"","type":"address","internalType":"address"}],"stateMutability":"view"},{"type":"function","name":"strategyManager","inputs":[],"outputs":[{"name":"","type":"address","internalType":"address"}],"stateMutability":"view"},{"type":"event","name":"Divest","inputs":[{"name":"user","type":"address","indexed":false,"internalType":"address"},{"name":"invested_amount","type":"uint256","indexed":false,"internalType":"uint256"},{"name":"received_amount","type":"uint256","indexed":false,"internalType":"uint256"}],"anonymous":false},{"type":"event","name":"FeeDeduction","inputs":[{"name":"user","type":"address","indexed":false,"internalType":"address"},{"name":"strategist","type":"address","indexed":false,"internalType":"address"},{"name":"fee_amount","type":"uint256","indexed":false,"internalType":"uint256"}],"anonymous":false},{"type":"event","name":"Invest","inputs":[{"name":"user","type":"address","indexed":true,"internalType":"address"},{"name":"amount","type":"uint256","indexed":false,"internalType":"uint256"}],"anonymous":false}],"bytecode":{"object":"0x6101206040526103e860805234801561001757600080fd5b50604051610ed9380380610ed98339810160408190526100369161008c565b6001600160a01b0394851660a05292841660c05290831660e052821661010052600180546001600160a01b031916919092161790556100f1565b80516001600160a01b038116811461008757600080fd5b919050565b600080600080600060a086880312156100a457600080fd5b6100ad86610070565b94506100bb60208701610070565b93506100c960408701610070565b92506100d760608701610070565b91506100e560808701610070565b90509295509295909350565b60805160a05160c05160e05161010051610d3c61019d6000396000818161018a01528181610435015281816104e6015261068d01526000818160a80152818161036701528181610713015261085a0152600081816101560152818161031a0152818161040601528181610515015281816106550152818161074501526107b90152600081816101be015281816102c6015261080d01526000818161023401526108ff0152610d3c6000f3fe60806040526004361061008a5760003560e01c80634dede3de116100595780634dede3de1461014457806392f6da0a14610178578063ad5c4648146101ac578063b9b8c246146101e0578063bb504317146101f557600080fd5b8063055add0d146100965780631fe4a686146100e757806339b70e38146101075780634d47732a1461012757600080fd5b3661009157005b600080fd5b3480156100a257600080fd5b506100ca7f000000000000000000000000000000000000000000000000000000000000000081565b6040516001600160a01b0390911681526020015b60405180910390f35b3480156100f357600080fd5b506000546100ca906001600160a01b031681565b34801561011357600080fd5b506001546100ca906001600160a01b031681565b34801561013357600080fd5b506040516103e881526020016100de565b34801561015057600080fd5b506100ca7f000000000000000000000000000000000000000000000000000000000000000081565b34801561018457600080fd5b506100ca7f000000000000000000000000000000000000000000000000000000000000000081565b3480156101b857600080fd5b506100ca7f000000000000000000000000000000000000000000000000000000000000000081565b6101f36101ee366004610a72565b610208565b005b6101f3610203366004610a72565b610627565b6001546001600160a01b0316331461021f57600080fd5b801561022a57600080fd5b60006127106102597f000000000000000000000000000000000000000000000000000000000000000034610ac0565b6102639190610add565b905060006102718234610aff565b600054604080516001600160a01b038089168252909216602083015281018490529091507f66c3a233e2d1f4724bc6f0753c0eea5baef94feefc9b52698e64ed7bb48f962a9060600160405180910390a160607f0000000000000000000000000000000000000000000000000000000000000000816000815181106102f8576102f8610b12565b60200260200101906001600160a01b031690816001600160a01b0316815250507f00000000000000000000000000000000000000000000000000000000000000008160018151811061034c5761034c610b12565b6001600160a01b0392831660209182029290920101526000907f000000000000000000000000000000000000000000000000000000000000000016637ff36ab58483853061039c42610960610b28565b6040518663ffffffff1660e01b81526004016103bb9493929190610b7f565b60006040518083038185885af11580156103d9573d6000803e3d6000fd5b50505050506040513d6000823e601f3d908101601f191682016040526104029190810190610bca565b90507f00000000000000000000000000000000000000000000000000000000000000006001600160a01b031663095ea7b37f00000000000000000000000000000000000000000000000000000000000000008360018151811061046757610467610b12565b60200260200101516040518363ffffffff1660e01b81526004016104a09291906001600160a01b03929092168252602082015260400190565b6020604051808303816000875af11580156104bf573d6000803e3d6000fd5b505050506040513d601f19601f820116820180604052508101906104e39190610c88565b507f00000000000000000000000000000000000000000000000000000000000000006001600160a01b031663e8eda9df7f00000000000000000000000000000000000000000000000000000000000000008360018151811061054757610547610b12565b60209081029190910101516040516001600160e01b031960e085901b1681526001600160a01b0392831660048201526024810191909152908916604482015260006064820152608401600060405180830381600087803b1580156105aa57600080fd5b505af11580156105be573d6000803e3d6000fd5b50505050856001600160a01b03167fd90d253a9de34d2fdd5a75ae49ea17fcb43af32fc8ea08cc6d2341991dd3872e8260018151811061060057610600610b12565b602002602001015160405161061791815260200190565b60405180910390a2505050505050565b6001546001600160a01b0316331461063e57600080fd5b604051631a4ca37b60e21b81526001600160a01b037f000000000000000000000000000000000000000000000000000000000000000081166004830152602482018390523060448301526000917f0000000000000000000000000000000000000000000000000000000000000000909116906369328dec906064016020604051808303816000875af11580156106d8573d6000803e3d6000fd5b505050506040513d601f19601f820116820180604052508101906106fc9190610cb1565b60405163095ea7b360e01b81526001600160a01b037f000000000000000000000000000000000000000000000000000000000000000081166004830152602482018390529192507f00000000000000000000000000000000000000000000000000000000000000009091169063095ea7b3906044016020604051808303816000875af1158015610790573d6000803e3d6000fd5b505050506040513d601f19601f820116820180604052508101906107b49190610c88565b5060607f0000000000000000000000000000000000000000000000000000000000000000816000815181106107eb576107eb610b12565b60200260200101906001600160a01b031690816001600160a01b0316815250507f00000000000000000000000000000000000000000000000000000000000000008160018151811061083f5761083f610b12565b6001600160a01b0392831660209182029290920101526000907f0000000000000000000000000000000000000000000000000000000000000000166318cbafe58483853061088f42610960610b28565b6040518663ffffffff1660e01b81526004016108af959493929190610cca565b6000604051808303816000875af11580156108ce573d6000803e3d6000fd5b505050506040513d6000823e601f3d908101601f191682016040526108f69190810190610bca565b905060006127107f00000000000000000000000000000000000000000000000000000000000000008360018151811061093157610931610b12565b60200260200101516109439190610ac0565b61094d9190610add565b9050856001600160a01b03166108fc828460018151811061097057610970610b12565b60200260200101516109829190610aff565b6040518115909202916000818181858888f193505050501580156109aa573d6000803e3d6000fd5b50600054604080516001600160a01b03808a168252909216602083015281018290527f66c3a233e2d1f4724bc6f0753c0eea5baef94feefc9b52698e64ed7bb48f962a9060600160405180910390a17fcafd59f7fc2c5ca06db768647429abaf7d4bbd26d7b7f3b61090fdd8f2e4472686868385600181518110610a3057610a30610b12565b6020026020010151610a429190610aff565b604080516001600160a01b03909416845260208401929092529082015260600160405180910390a1505050505050565b60008060408385031215610a8557600080fd5b82356001600160a01b0381168114610a9c57600080fd5b946020939093013593505050565b634e487b7160e01b600052601160045260246000fd5b8082028115828204841417610ad757610ad7610aaa565b92915050565b600082610afa57634e487b7160e01b600052601260045260246000fd5b500490565b81810381811115610ad757610ad7610aaa565b634e487b7160e01b600052603260045260246000fd5b80820180821115610ad757610ad7610aaa565b600081518084526020808501945080840160005b83811015610b745781516001600160a01b031687529582019590820190600101610b4f565b509495945050505050565b848152608060208201526000610b986080830186610b3b565b6001600160a01b03949094166040830152506060015292915050565b634e487b7160e01b600052604160045260246000fd5b60006020808385031215610bdd57600080fd5b825167ffffffffffffffff80821115610bf557600080fd5b818501915085601f830112610c0957600080fd5b815181811115610c1b57610c1b610bb4565b8060051b604051601f19603f83011681018181108582111715610c4057610c40610bb4565b604052918252848201925083810185019188831115610c5e57600080fd5b938501935b82851015610c7c57845184529385019392850192610c63565b98975050505050505050565b600060208284031215610c9a57600080fd5b81518015158114610caa57600080fd5b9392505050565b600060208284031215610cc357600080fd5b5051919050565b85815284602082015260a060408201526000610ce960a0830186610b3b565b6001600160a01b039490941660608301525060800152939250505056fea264697066735822122051cbbbf8ca3c4059d31e1695860f6df7b9e76b652b12c86461b4d4b39fa3168564736f6c63430008150033","linkReferences":{}},"methodIdentifiers":{"AaveLendingPool()":"92f6da0a","UniswapV2Router()":"055add0d","WBTC()":"4dede3de","WETH()":"ad5c4648","divest(address,uint256)":"bb504317","getRoyalty()":"4d47732a","invest(address,uint256)":"b9b8c246","strategist()":"1fe4a686","strategyManager()":"39b70e38"},"id":0}